TCNXMT1W K6                  000003064090725                                                                                                                                                                                                                                                                                                                                                                    
01000000011882105063402  40010010283006  4TKTT    /   0101          FVVV               0011AA/FNYITZ       ABUIN GARCIA/SIMON SIMON MR                      20250907A07100063                       U        VN     JYZSWVN                     00000000                                                                                               X   06    405                                            
02000000021882105063402  40010010283006  4JYZ   20250906                              1-617-390339                                                                    2021000006SEP                                                                                                                                                                                                                             
03000000031882105063402  40010010283006  4                                       USD  120.00               36.00YQ    12.00YR    22.00XTUSD  190.00               ADTADT                                                                              NON-END/REROUTE/RESTRICTION APPLY                                                                                                                         
04000000041882105063402  40010010283006  40000001900000000012000USD200000000000          0000000000000000      0000000000000000      00000000000000000000000000000000  000000000000000000000000000000000YQF     00000003600YRI     00000001200JC      00000002000C4      00000000200        00000000000        00000000000        00000000000        00000000000        00000000000                             
05000000051882105063402  40010010283006  41  DAD  SAI  K6  K6  841  841  H   04NOV04NOV04NOV1520 1640 OK1PCHOWB                                                                                                                                                                                                                                                                                                 
07000000061882105063402  40010010283006  4CCVI      00000019000438857XXXXXX7529   0526 03033D                                                       00000000000USD2            00000000000                                                                                     00000000000      VI438857XXXXXX7529 0526 03033D                                                                                  
08000000071882105063402  40010010283006  400DAD K6 SAI120.00NUC120.00END ROE1.00                                                   1                                                                                       0                                                                                       0                                                                                       0    
24000000081882105063402  40010010283006  4                                                                                                                                                                                                                                                                             JYZ  SS1*N  K6    0000000000KYY  502A                                 JYZ  JYZ           
25000000091882105063402  40010010283006  4                                                Y0JYZ  KYY  SS100000000005202509062020JYZ  KYY  SS100000000005202509062020                                  00000000000                                                                                                                                                                                               
01000000101882105063403  50010010283016  0TKTT    /   0101          FVVV               0011AA/FNYITZ       CAMEJO BLANCO/LUCIA MRS                          20250907A07100063                       U        VN     JYZSWVN                     00000000                                                                                               X   06    405                                            
02000000111882105063403  50010010283016  0JYZ   20250906                              1-617-390339                                                                    2021000006SEP                                                                                                                                                                                                                             
03000000121882105063403  50010010283016  0                                       USD  120.00               36.00YQ    12.00YR    22.00XTUSD  190.00               ADTADT                                                                              NON-END/REROUTE/RESTRICTION APPLY                                                                                                                         
04000000131882105063403  50010010283016  00000001900000000012000USD200000000000          0000000000000000      0000000000000000      00000000000000000000000000000000  000000000000000000000000000000000YQF     00000003600YRI     00000001200JC      00000002000C4      00000000200        00000000000        00000000000        00000000000        00000000000        00000000000                             
05000000141882105063403  50010010283016  01  DAD  SAI  K6  K6  841  841  H   04NOV04NOV04NOV1520 1640 OK1PCHOWB                                                                                                                                                                                                                                                                                                 
07000000151882105063403  50010010283016  0CCVI      00000019000438857XXXXXX7529   0526 03033D                                                       00000000000USD2            00000000000                                                                                     00000000000      VI438857XXXXXX7529 0526 03033D                                                                                  
08000000161882105063403  50010010283016  000DAD K6 SAI120.00NUC120.00END ROE1.00                                                   1                                                                                       0                                                                                       0                                                                                       0    
24000000171882105063403  50010010283016  0                                                                                                                                                                                                                                                                             JYZ  SS1*N  K6    0000000000KYY  502A                                 JYZ  JYZ           
25000000181882105063403  50010010283016  0                                                Y0JYZ  KYY  SS100000000005202509062020JYZ  KYY  SS100000000005202509062020                                  00000000000                                                                                                                                                                                               
01000000191882105063391  00011009669046  6TKTT    /   0101          FVVV               0011AA/YSUNYL       WILLIAMS/LINDA MS                                20250907A07100026                       U        KH     JYYSWKH                     00000000                                                                                               X   06    405                                            
02000000201882105063391  00011009669046  6JYY   20250906                              1-520-270633                                                                    1902000006SEP                                                                                                                                                                                                                             
03000000211882105063391  00011009669046  6                                       USD  135.00               36.00YQ    12.00YR    35.00XTUSD  218.00               ADTADT                                                                              NON-END/REROUTE/RESTRICTION APPLY                                                                                                                         
04000000221882105063391  00011009669046  60000002180000000013500USD200000000000          0000000000000000      0000000000000000      00000000000000000000000000000000  000000000000000000000000000000000YQF     00000003600YRI     00000001200KX      00000003000L5      00000000500        00000000000        00000000000        00000000000        00000000000        00000000000                             
05000000231882105063391  00011009669046  61  SAI  DAD  K6  K6  840  840  M   19NOV19NOV19NOV1300 1420 OK1PCMOWB                                                                                                                                                                                                                                                                                                 
07000000241882105063391  00011009669046  6CCVI      00000021800414720XXXXXX0569   0230 07378D                                                       00000000000USD2            00000000000                                                                                     00000000000      VI414720XXXXXX0569 0230 07378D                                                                                  
08000000251882105063391  00011009669046  600SAI K6 DAD135.00NUC135.00END ROE1.00                                                   1                                                                                       0                                                                                       0                                                                                       0    
24000000261882105063391  00011009669046  6                                                                                                                                                                                                                                                                             JYY  SS1*N  K6    0000000000KYY  502A                                 JYY  JYY           
25000000271882105063391  00011009669046  6                                                Y0JYY  KYY  SS100000000005202509061902JYY  KYY  SS100000000005202509061902                                  00000000000                                                                                                                                                                                               
01000000281882405063392  40011009669050  3TKTT    /   0101          FVVV               0011AA/UXZGRW       CHEN/WEI MS                                      20250907A08383034                       U        CN     MDGTOCN                     00000000                                                                                               X   06    405                                            
02000000291882405063392  40011009669050  3MDG   20250906                              18128861151-                                                                    1931000006SEP                                                                                                                                                                                                                             
03000000301882405063392  40011009669050  3                                       IT                          322YQ       43YR       90CN           ITWA200401KH   ADT                                                                                 NON-END/REROUTE/RESTRICTION APPLY/ TICKET CNT                                                                                                             
04000000311882405063392  40011009669050  30000000345500000003000CNY000000000000          0000000000000000      0000000000000000      00000000000000000000000000000000  000000000000000000000000000000000YQF     00000000322YRI     00000000043CN      00000000090        00000000000        00000000000        00000000000        00000000000        00000000000        00000000000                             
05000000321882405063392  40011009669050  31  CAN  KTI  K6  K6   669  669 J   09SEP09SEP09SEP1325 1520 OK2PCJOCNA                                                                                                                                                                                                                                                                                                
07000000331882405063392  40011009669050  3XX        00000003455                                                                                     00000000000CNY0            00000000000                                                                                     00000000000      XX                                                                                                              
08000000341882405063392  40011009669050  300CAN K6 KTI417.32NUC417.32END ROE7.188637                                               1                                                                                       0                                                                                       0                                                                                       0    
24000000351882405063392  40011009669050  3                                                                                                                                                                                                                                                                             MDG  M12 N  K6 IT 0000000000MDG  50GF                                 MDG  MDG           
25000000361882405063392  40011009669050  3                                                Y0MDG  MDG  M1200000000005202509061931MDG  MDG  M1200000000005202509061931                                  00000000000                                                                                                                                                                                               
01000000371882405063393  50011009669060  6TKTT    /   0101          FVVV               0011AA/KLJJCU       HUANG/FEI MR                                     20250907A08383034                       U        CN     MDGTOCN                     00000000                                                                                               X   06    405                                            
02000000381882405063393  50011009669060  6MDG   20250906                              18128861151-                                                                    1939000006SEP                                                                                                                                                                                                                             
03000000391882405063393  50011009669060  6                                       IT         IT               322YQ       43YR      251XT           ITWA200401KH   ADT                                                                                 NON-END/REROUTE/RESTRICTION APPLY/ TICKET CNT                                                                                                             
04000000401882405063393  50011009669060  60000000115600000007500USD200000000540CNY0      0000000000000000      0000000000000000      00000000000000000000000000000000  000000000000000000000000000000000YQF     00000000322YRI     00000000043KX      00000000215L5      00000000036        00000000000        00000000000        00000000000        00000000000        00000000000                             
05000000411882405063393  50011009669060  61  PNH  CAN  K6  K6   610  610 Q   08SEP08SEP08SEP2350 0400 OK1PCQOCNA                                                                                                                                                                                                                                                                                                
07000000421882405063393  50011009669060  6XX        00000001156                                                                                     00000000000CNY0            00000000000                                                                                     00000000000      XX                                                                                                              
08000000431882405063393  50011009669060  600PNH K6 CAN75.00NUC75.00END ROE1.00                                                     1                                                                                       0                                                                                       0                                                                                       0    
24000000441882405063393  50011009669060  6                                                                                                                                                                                                                                                                             MDG  M12 N  K6 IT 0000000000MDG  50GF                                 MDG  MDG           
25000000451882405063393  50011009669060  6                                                Y0MDG  MDG  M1200000000005202509061939MDG  MDG  M1200000000005202509061939                                  00000000000                                                                                                                                                                                               
01000000461882405063394  60011009669070  2TKTT    /   0101          FVVV               0011AA/UCRPYH       ZHANG/LI MS                                      20250907A08383034                       U        CN     MDGTOCN                     00000000                                                                                               X   06    405                                            
02000000471882405063394  60011009669070  2MDG   20250906                              19836222397-                                                                    1944000006SEP                                                                                                                                                                                                                             
03000000481882405063394  60011009669070  2                                       IT                          322YQ       43YR       90CN           ITWA200401KH   ADT                                                                                 NON-END/REROUTE/RESTRICTION APPLY/ TICKET CJX                                                                                                             
04000000491882405063394  60011009669070  20000000110500000000650CNY000000000000          0000000000000000      0000000000000000      00000000000000000000000000000000  000000000000000000000000000000000YQF     00000000322YRI     00000000043CN      00000000090        00000000000        00000000000        00000000000        00000000000        00000000000        00000000000                             
05000000501882405063394  60011009669070  21  CAN  KTI  K6  K6   669  669 Q   09SEP09SEP09SEP1325 1520 OK1PCQOCNA                                                                                                                                                                                                                                                                                                
07000000511882405063394  60011009669070  2XX        00000001105                                                                                     00000000000CNY0            00000000000                                                                                     00000000000      XX                                                                                                              
08000000521882405063394  60011009669070  200CAN K6 KTI90.42NUC90.42END ROE7.188637                                                 1                                                                                       0                                                                                       0                                                                                       0    
24000000531882405063394  60011009669070  2                                                                                                                                                                                                                                                                             MDG  M12 N  K6 IT 0000000000MDG  50GF                                 MDG  MDG           
25000000541882405063394  60011009669070  2                                                Y0MDG  MDG  M1200000000005202509061944MDG  MDG  M1200000000005202509061944                                  00000000000                                                                                                                                                                                               
01000000551882405063395  00011009669080  5TKTT    /   0101          FVVV               0011AA/YROGTT       QIAN/JIANAN MR                                   20250907A08383034                       U        CN     MDGTOCN                     00000000                                                                                               X   06    405                                            
02000000561882405063395  00011009669080  5MDG   20250906                              15090406490-                                                                    1954000006SEP                                                                                                                                                                                                                             
03000000571882405063395  00011009669080  5                                       IT         IT               322YQ       43YR      251XT           ITWA200401KH   ADT                                                                                 NON-END/REROUTE/RESTRICTION APPLY/ TICKET CJX                                                                                                             
04000000581882405063395  00011009669080  50000000086600000003500USD200000000250CNY0      0000000000000000      0000000000000000      00000000000000000000000000000000  000000000000000000000000000000000YQF     00000000322YRI     00000000043KX      00000000215L5      00000000036        00000000000        00000000000        00000000000        00000000000        00000000000                             
05000000591882405063395  00011009669080  51  PNH  CAN  K6  K6   610  610 A   07SEP07SEP07SEP2350 0400 OK1PCAOCNA                                                                                                                                                                                                                                                                                                
07000000601882405063395  00011009669080  5XX        00000000866                                                                                     00000000000CNY0            00000000000                                                                                     00000000000      XX                                                                                                              
08000000611882405063395  00011009669080  500PNH K6 CAN35.00NUC35.00END ROE1.00                                                     1                                                                                       0                                                                                       0                                                                                       0    
24000000621882405063395  00011009669080  5                                                                                                                                                                                                                                                                             MDG  M12 N  K6 IT 0000000000MDG  50GF                                 MDG  MDG           
25000000631882405063395  00011009669080  5                                                Y0MDG  MDG  M1200000000005202509061954MDG  MDG  M1200000000005202509061954                                  00000000000                                                                                                                                                                                               
01000000641882405063396  10011009669090  1TKTT    /   0101          FVVV               0011AA/YROGTT       SHAN/ZHEJUN MS                                   20250907A08383034                       U        CN     MDGTOCN                     00000000                                                                                               X   06    405                                            
02000000651882405063396  10011009669090  1MDG   20250906                              15090406490-                                                                    1954000006SEP                                                                                                                                                                                                                             
03000000661882405063396  10011009669090  1                                       IT         IT               322YQ       43YR      251XT           ITWA200401KH   ADT                                                                                 NON-END/REROUTE/RESTRICTION APPLY/ TICKET CJX                                                                                                             
04000000671882405063396  10011009669090  10000000086600000003500USD200000000250CNY0      0000000000000000      0000000000000000      00000000000000000000000000000000  000000000000000000000000000000000YQF     00000000322YRI     00000000043KX      00000000215L5      00000000036        00000000000        00000000000        00000000000        00000000000        00000000000                             
05000000681882405063396  10011009669090  11  PNH  CAN  K6  K6   610  610 A   07SEP07SEP07SEP2350 0400 OK1PCAOCNA                                                                                                                                                                                                                                                                                                
07000000691882405063396  10011009669090  1XX        00000000866                                                                                     00000000000CNY0            00000000000                                                                                     00000000000      XX                                                                                                              
08000000701882405063396  10011009669090  100PNH K6 CAN35.00NUC35.00END ROE1.00                                                     1                                                                                       0                                                                                       0                                                                                       0    
24000000711882405063396  10011009669090  1                                                                                                                                                                                                                                                                             MDG  M12 N  K6 IT 0000000000MDG  50GF                                 MDG  MDG           
25000000721882405063396  10011009669090  1                                                Y0MDG  MDG  M1200000000005202509061954MDG  MDG  M1200000000005202509061954                                  00000000000                                                                                                                                                                                               
01000000731882405063397  20011009669100  4TKTT    /   0101          FVVV               0011AA/YROGTT       CHONG/JINPING MS                                 20250907A08383034                       U        CN     MDGTOCN                     00000000                                                                                               X   06    405                                            
02000000741882405063397  20011009669100  4MDG   20250906                              15090406490-                                                                    1954000006SEP                                                                                                                                                                                                                             
03000000751882405063397  20011009669100  4                                       IT         IT               322YQ       43YR      251XT           ITWA200401KH   ADT                                                                                 NON-END/REROUTE/RESTRICTION APPLY/ TICKET CJX                                                                                                             
04000000761882405063397  20011009669100  40000000086600000003500USD200000000250CNY0      0000000000000000      0000000000000000      00000000000000000000000000000000  000000000000000000000000000000000YQF     00000000322YRI     00000000043KX      00000000215L5      00000000036        00000000000        00000000000        00000000000        00000000000        00000000000                             
05000000771882405063397  20011009669100  41  PNH  CAN  K6  K6   610  610 A   07SEP07SEP07SEP2350 0400 OK1PCAOCNA                                                                                                                                                                                                                                                                                                
07000000781882405063397  20011009669100  4XX        00000000866                                                                                     00000000000CNY0            00000000000                                                                                     00000000000      XX                                                                                                              
08000000791882405063397  20011009669100  400PNH K6 CAN35.00NUC35.00END ROE1.00                                                     1                                                                                       0                                                                                       0                                                                                       0    
24000000801882405063397  20011009669100  4                                                                                                                                                                                                                                                                             MDG  M12 N  K6 IT 0000000000MDG  50GF                                 MDG  MDG           
25000000811882405063397  20011009669100  4                                                Y0MDG  MDG  M1200000000005202509061954MDG  MDG  M1200000000005202509061954                                  00000000000                                                                                                                                                                                               
01000000821882405063398  30011009669110  0TKTT    /   0101          FVVV               0011AA/YUVRYD       YAN/HAOXIANG MR                                  20250907A08383034                       U        CN     MDGTOCN                     00000000                                                                                               X   06    405                                            
02000000831882405063398  30011009669110  0MDG   20250906                              18128861151-                                                                    2016000006SEP                                                                                                                                                                                                                             
03000000841882405063398  30011009669110  0                                       IT                          322YQ       43YR       90CN           ITWA200401KH   ADT                                                                                 NON-END/REROUTE/RESTRICTION APPLY/ TICKET CNT                                                                                                             
04000000851882405063398  30011009669110  00000000110500000000650CNY000000000000          0000000000000000      0000000000000000      00000000000000000000000000000000  000000000000000000000000000000000YQF     00000000322YRI     00000000043CN      00000000090        00000000000        00000000000        00000000000        00000000000        00000000000        00000000000                             
05000000861882405063398  30011009669110  01  CAN  KTI  K6  K6   669  669 Q   10SEP10SEP10SEP1325 1520 OK1PCQOCNA                                                                                                                                                                                                                                                                                                
07000000871882405063398  30011009669110  0XX        00000001105                                                                                     00000000000CNY0            00000000000                                                                                     00000000000      XX                                                                                                              
08000000881882405063398  30011009669110  000CAN K6 KTI90.42NUC90.42END ROE7.188637                                                 1                                                                                       0                                                                                       0                                                                                       0    
24000000891882405063398  30011009669110  0                                                                                                                                                                                                                                                                             MDG  M12 N  K6 IT 0000000000MDG  50GF                                 MDG  MDG           
25000000901882405063398  30011009669110  0                                                Y0MDG  MDG  M1200000000005202509062016MDG  MDG  M1200000000005202509062016                                  00000000000                                                                                                                                                                                               
01000000911882405063382  10011009669120  5CANX        0101                             0011                                                                 20250906A                                          MDG                              00000000                                                                                                                                                        
01000000921882405063383  20011009669130  1CANX        0101                             0011                                                                 20250906A                                          MDG                              00000000                                                                                                                                                        
01000000931882405063384  30011009669140  4CANX        0101                             0011                                                                 20250906A                                          MDG                              00000000                                                                                                                                                        
01000000941882405063502  20011009669150  5TKTT    /   0101          FVVV               0011AA/UBRNHH       XU/YONGQIU MR                                    20250907A08383034                       U        CN     MDGTOCN                     00000000                                                                                               X   06    405                                            
02000000951882405063502  20011009669150  5MDG   20250906                              19836222397-                                                                    2050000006SEP                                                                                                                                                                                                                             
03000000961882405063502  20011009669150  5                                       IT                          322YQ       43YR       90CN           ITWA200401KH   ADT                                                                                 NON-END/REROUTE/RESTRICTION APPLY/ TICKET CJX                                                                                                             
04000000971882405063502  20011009669150  50000000095500000000500CNY000000000000          0000000000000000      0000000000000000      00000000000000000000000000000000  000000000000000000000000000000000YQF     00000000322YRI     00000000043CN      00000000090        00000000000        00000000000        00000000000        00000000000        00000000000        00000000000                             
05000000981882405063502  20011009669150  51  CAN  KTI  K6  K6   669  669 P   11SEP11SEP11SEP1345 1540 OK1PCPOCNA                                                                                                                                                                                                                                                                                                
07000000991882405063502  20011009669150  5XX        00000000955                                                                                     00000000000CNY0            00000000000                                                                                     00000000000      XX                                                                                                              
08000001001882405063502  20011009669150  500CAN K6 KTI69.55NUC69.55END ROE7.188637                                                 1                                                                                       0                                                                                       0                                                                                       0    
24000001011882405063502  20011009669150  5                                                                                                                                                                                                                                                                             MDG  M12 N  K6 IT 0000000000MDG  50GF                                 MDG  MDG           
25000001021882405063502  20011009669150  5                                                Y0MDG  MDG  M1200000000005202509062050MDG  MDG  M1200000000005202509062050                                  00000000000                                                                                                                                                                                               
01000001031882405063503  30011009669160  1TKTT    /   0101          FVVV               0011AA/UBRNHH       HE/WEISHENG MR                                   20250907A08383034                       U        CN     MDGTOCN                     00000000                                                                                               X   06    405                                            
02000001041882405063503  30011009669160  1MDG   20250906                              19836222397-                                                                    2050000006SEP                                                                                                                                                                                                                             
03000001051882405063503  30011009669160  1                                       IT                          322YQ       43YR       90CN           ITWA200401KH   ADT                                                                                 NON-END/REROUTE/RESTRICTION APPLY/ TICKET CJX                                                                                                             
04000001061882405063503  30011009669160  10000000095500000000500CNY000000000000          0000000000000000      0000000000000000      00000000000000000000000000000000  000000000000000000000000000000000YQF     00000000322YRI     00000000043CN      00000000090        00000000000        00000000000        00000000000        00000000000        00000000000        00000000000                             
05000001071882405063503  30011009669160  11  CAN  KTI  K6  K6   669  669 P   11SEP11SEP11SEP1345 1540 OK1PCPOCNA                                                                                                                                                                                                                                                                                                
07000001081882405063503  30011009669160  1XX        00000000955                                                                                     00000000000CNY0            00000000000                                                                                     00000000000      XX                                                                                                              
08000001091882405063503  30011009669160  100CAN K6 KTI69.55NUC69.55END ROE7.188637                                                 1                                                                                       0                                                                                       0                                                                                       0    
24000001101882405063503  30011009669160  1                                                                                                                                                                                                                                                                             MDG  M12 N  K6 IT 0000000000MDG  50GF                                 MDG  MDG           
25000001111882405063503  30011009669160  1                                                Y0MDG  MDG  M1200000000005202509062050MDG  MDG  M1200000000005202509062050                                  00000000000                                                                                                                                                                                               
01000001121882405063504  40011009669170  4TKTT    /   0101          FVVV               0011AA/UBRNHH       LIU/ERHAO MR                                     20250907A08383034                       U        CN     MDGTOCN                     00000000                                                                                               X   06    405                                            
02000001131882405063504  40011009669170  4MDG   20250906                              19836222397-                                                                    2050000006SEP                                                                                                                                                                                                                             
03000001141882405063504  40011009669170  4                                       IT                          322YQ       43YR       90CN           ITWA200401KH   ADT                                                                                 NON-END/REROUTE/RESTRICTION APPLY/ TICKET CJX                                                                                                             
04000001151882405063504  40011009669170  40000000095500000000500CNY000000000000          0000000000000000      0000000000000000      00000000000000000000000000000000  000000000000000000000000000000000YQF     00000000322YRI     00000000043CN      00000000090        00000000000        00000000000        00000000000        00000000000        00000000000        00000000000                             
05000001161882405063504  40011009669170  41  CAN  KTI  K6  K6   669  669 P   11SEP11SEP11SEP1345 1540 OK1PCPOCNA                                                                                                                                                                                                                                                                                                
07000001171882405063504  40011009669170  4XX        00000000955                                                                                     00000000000CNY0            00000000000                                                                                     00000000000      XX                                                                                                              
08000001181882405063504  40011009669170  400CAN K6 KTI69.55NUC69.55END ROE7.188637                                                 1                                                                                       0                                                                                       0                                                                                       0    
24000001191882405063504  40011009669170  4                                                                                                                                                                                                                                                                             MDG  M12 N  K6 IT 0000000000MDG  50GF                                 MDG  MDG           
25000001201882405063504  40011009669170  4                                                Y0MDG  MDG  M1200000000005202509062050MDG  MDG  M1200000000005202509062050                                  00000000000                                                                                                                                                                                               
01000001211882405063505  50011009669180  0TKTT    /   0101          FVVV               0011AA/UBRNHH       HAN/WENGUANG MR                                  20250907A08383034                       U        CN     MDGTOCN                     00000000                                                                                               X   06    405                                            
02000001221882405063505  50011009669180  0MDG   20250906                              19836222397-                                                                    2050000006SEP                                                                                                                                                                                                                             
03000001231882405063505  50011009669180  0                                       IT                          322YQ       43YR       90CN           ITWA200401KH   ADT                                                                                 NON-END/REROUTE/RESTRICTION APPLY/ TICKET CJX                                                                                                             
04000001241882405063505  50011009669180  00000000095500000000500CNY000000000000          0000000000000000      0000000000000000      00000000000000000000000000000000  000000000000000000000000000000000YQF     00000000322YRI     00000000043CN      00000000090        00000000000        00000000000        00000000000        00000000000        00000000000        00000000000                             
05000001251882405063505  50011009669180  01  CAN  KTI  K6  K6   669  669 P   11SEP11SEP11SEP1345 1540 OK1PCPOCNA                                                                                                                                                                                                                                                                                                
07000001261882405063505  50011009669180  0XX        00000000955                                                                                     00000000000CNY0            00000000000                                                                                     00000000000      XX                                                                                                              
08000001271882405063505  50011009669180  000CAN K6 KTI69.55NUC69.55END ROE7.188637                                                 1                                                                                       0                                                                                       0                                                                                       0    
24000001281882405063505  50011009669180  0                                                                                                                                                                                                                                                                             MDG  M12 N  K6 IT 0000000000MDG  50GF                                 MDG  MDG           
25000001291882405063505  50011009669180  0                                                Y0MDG  MDG  M1200000000005202509062050MDG  MDG  M1200000000005202509062050                                  00000000000                                                                                                                                                                                               
01000001301882405063506  60011009669190  3TKTT    /   0101          FVVV               0011AA/UDLMAO       HUANG/PEIYUAN MR                                 20250907A08383034                       U        CN     MDGTOCN                     00000000                                                                                               X   06    405                                            
02000001311882405063506  60011009669190  3MDG   20250906                              19836222397-                                                                    2100000006SEP                                                                                                                                                                                                                             
03000001321882405063506  60011009669190  3                                       IT         IT               322YQ       43YR      251XT           ITWA200401KH   ADT                                                                                 NON-END/REROUTE/RESTRICTION APPLY/ TICKET CJX                                                                                                             
04000001331882405063506  60011009669190  30000000097600000005000USD200000000360CNY0      0000000000000000      0000000000000000      00000000000000000000000000000000  000000000000000000000000000000000YQF     00000000322YRI     00000000043KX      00000000215L5      00000000036        00000000000        00000000000        00000000000        00000000000        00000000000                             
05000001341882405063506  60011009669190  31  KTI  SZX  K6  K6   926  926 A   15SEP15SEP15SEP2030 0005 OK1PCAOCNA                                                                                                                                                                                                                                                                                                
07000001351882405063506  60011009669190  3XX        00000000976                                                                                     00000000000CNY0            00000000000                                                                                     00000000000      XX                                                                                                              
08000001361882405063506  60011009669190  300KTI K6 SZX50.00NUC50.00END ROE1.00                                                     1                                                                                       0                                                                                       0                                                                                       0    
24000001371882405063506  60011009669190  3                                                                                                                                                                                                                                                                             MDG  M12 N  K6 IT 0000000000MDG  50GF                                 MDG  MDG           
25000001381882405063506  60011009669190  3                                                Y0MDG  MDG  M1200000000005202509062100MDG  MDG  M1200000000005202509062100                                  00000000000                                                                                                                                                                                               
01000001391882405063507  00011009669200  6TKTT    /   0101          FVVV               0011AA/UDLMAO       WEN/SHIQI MS                                     20250907A08383034                       U        CN     MDGTOCN                     00000000                                                                                               X   06    405                                            
02000001401882405063507  00011009669200  6MDG   20250906                              19836222397-                                                                    2100000006SEP                                                                                                                                                                                                                             
03000001411882405063507  00011009669200  6                                       IT         IT               322YQ       43YR      251XT           ITWA200401KH   ADT                                                                                 NON-END/REROUTE/RESTRICTION APPLY/ TICKET CJX                                                                                                             
04000001421882405063507  00011009669200  60000000097600000005000USD200000000360CNY0      0000000000000000      0000000000000000      00000000000000000000000000000000  000000000000000000000000000000000YQF     00000000322YRI     00000000043KX      00000000215L5      00000000036        00000000000        00000000000        00000000000        00000000000        00000000000                             
05000001431882405063507  00011009669200  61  KTI  SZX  K6  K6   926  926 A   15SEP15SEP15SEP2030 0005 OK1PCAOCNA                                                                                                                                                                                                                                                                                                
07000001441882405063507  00011009669200  6XX        00000000976                                                                                     00000000000CNY0            00000000000                                                                                     00000000000      XX                                                                                                              
08000001451882405063507  00011009669200  600KTI K6 SZX50.00NUC50.00END ROE1.00                                                     1                                                                                       0                                                                                       0                                                                                       0    
24000001461882405063507  00011009669200  6                                                                                                                                                                                                                                                                             MDG  M12 N  K6 IT 0000000000MDG  50GF                                 MDG  MDG           
25000001471882405063507  00011009669200  6                                                Y0MDG  MDG  M1200000000005202509062100MDG  MDG  M1200000000005202509062100                                  00000000000                                                                                                                                                                                               
01000001481882405063508  10011009669210  2TKTT    /   0101          FVVV               0011AA/KKXJRW       ZONG/CHENGMING MS                                20250907A08383034                       U        CN     MDGTOCN                     00000000                                                                                               X   06    405                                            
02000001491882405063508  10011009669210  2MDG   20250906                              19836222397-                                                                    2122000006SEP                                                                                                                                                                                                                             
03000001501882405063508  10011009669210  2                                       IT         IT               322YQ       43YR      251XT           ITWA200401KH   ADT                                                                                 NON-END/REROUTE/RESTRICTION APPLY/ TICKET CJX                                                                                                             
04000001511882405063508  10011009669210  20000000148600000012100USD200000000870CNY0      0000000000000000      0000000000000000      00000000000000000000000000000000  000000000000000000000000000000000YQF     00000000322YRI     00000000043KX      00000000215L5      00000000036        00000000000        00000000000        00000000000        00000000000        00000000000                             
05000001521882405063508  10011009669210  21  KTI  SZX  K6  K6   926  926 R   18SEP18SEP18SEP2130 0100 OK1PCROCNA                                                                                                                                                                                                                                                                                                
07000001531882405063508  10011009669210  2XX        00000001486                                                                                     00000000000CNY0            00000000000                                                                                     00000000000      XX                                                                                                              
08000001541882405063508  10011009669210  200KTI K6 SZX121.00NUC121.00END ROE1.00                                                   1                                                                                       0                                                                                       0                                                                                       0    
24000001551882405063508  10011009669210  2                                                                                                                                                                                                                                                                             MDG  M12 N  K6 IT 0000000000MDG  50GF                                 MDG  MDG           
25000001561882405063508  10011009669210  2                                                Y0MDG  MDG  M1200000000005202509062122MDG  MDG  M1200000000005202509062122                                  00000000000                                                                                                                                                                                               
01000001571882405063509  20011009669220  5TKTT    /   0101          FVVV               0011AA/FOQHAR       LIAO/FEIXIONG MR                                 20250907A08383034                       U        CN     MDGTOCN                     00000000                                                                                               X   06    405                                            
02000001581882405063509  20011009669220  5MDG   20250906                              18128861151-                                                                    2131000006SEP                                                                                                                                                                                                                             
03000001591882405063509  20011009669220  5                                       IT                          322YQ       43YR       90CN           ITWA200401KH   ADT                                                                                 NON-END/REROUTE/RESTRICTION APPLY/ TICKET CNT                                                                                                             
04000001601882405063509  20011009669220  50000000080500000000350CNY000000000000          0000000000000000      0000000000000000      00000000000000000000000000000000  000000000000000000000000000000000YQF     00000000322YRI     00000000043CN      00000000090        00000000000        00000000000        00000000000        00000000000        00000000000        00000000000                             
05000001611882405063509  20011009669220  51  CAN  KTI  K6  K6   611  611 A   09SEP09SEP09SEP0605 0800 OK1PCAOCNA                                                                                                                                                                                                                                                                                                
07000001621882405063509  20011009669220  5XX        00000000805                                                                                     00000000000CNY0            00000000000                                                                                     00000000000      XX                                                                                                              
08000001631882405063509  20011009669220  500CAN K6 KTI48.68NUC48.68END ROE7.188637                                                 1                                                                                       0                                                                                       0                                                                                       0    
24000001641882405063509  20011009669220  5                                                                                                                                                                                                                                                                             MDG  M12 N  K6 IT 0000000000MDG  50GF                                 MDG  MDG           
25000001651882405063509  20011009669220  5                                                Y0MDG  MDG  M1200000000005202509062131MDG  MDG  M1200000000005202509062131                                  00000000000                                                                                                                                                                                               
01000001661882405063510  30011009669230  1TKTT    /   0101          FVVV               0011AA/YRJJDN       ZHANG/PENG MR                                    20250907A08383034                       U        CN     MDGTOCN                     00000000                                                                                               X   06    405                                            
02000001671882405063510  30011009669230  1MDG   20250906                              18128861151-                                                                    2147000006SEP                                                                                                                                                                                                                             
03000001681882405063510  30011009669230  1                                       IT         IT               322YQ       43YR      251XT           ITWA200401KH   ADT                                                                                 NON-END/REROUTE/RESTRICTION APPLY/ TICKET CNT                                                                                                             
04000001691882405063510  30011009669230  10000000151600000012500USD200000000900CNY0      0000000000000000      0000000000000000      00000000000000000000000000000000  000000000000000000000000000000000YQF     00000000322YRI     00000000043KX      00000000215L5      00000000036        00000000000        00000000000        00000000000        00000000000        00000000000                             
05000001701882405063510  30011009669230  11  KTI  CGO  K6  K6   894  894 P   04NOV04NOV04NOV0055 0605 OK1PCPOCNA                                                                                                                                                                                                                                                                                                
07000001711882405063510  30011009669230  1XX        00000001516                                                                                     00000000000CNY0            00000000000                                                                                     00000000000      XX                                                                                                              
08000001721882405063510  30011009669230  100KTI K6 CGO125.00NUC125.00END ROE1.00                                                   1                                                                                       0                                                                                       0                                                                                       0    
24000001731882405063510  30011009669230  1                                                                                                                                                                                                                                                                             MDG  M12 N  K6 IT 0000000000MDG  50GF                                 MDG  MDG           
25000001741882405063510  30011009669230  1                                                Y0MDG  MDG  M1200000000005202509062147MDG  MDG  M1200000000005202509062147                                  00000000000                                                                                                                                                                                               
01000001751882405063511  40011009669240  4TKTT    /   0101          FVVV               0011AA/YTJEEY       KAIN/JOLY MS                                     20250907A08383034                       U        CN     MDGTOCN                     00000000                                                                                               X   06    405                                            
02000001761882405063511  40011009669240  4MDG   20250906                              18128861151-                                                                    2149000006SEP                                                                                                                                                                                                                             
03000001771882405063511  40011009669240  4                                       IT         IT               322YQ       43YR      251XT           ITWA200401KH   ADT                                                                                 NON-END/REROUTE/RESTRICTION APPLY/ TICKET CNT                                                                                                             
04000001781882405063511  40011009669240  40000000086600000003500USD200000000250CNY0      0000000000000000      0000000000000000      00000000000000000000000000000000  000000000000000000000000000000000YQF     00000000322YRI     00000000043KX      00000000215L5      00000000036        00000000000        00000000000        00000000000        00000000000        00000000000                             
05000001791882405063511  40011009669240  41  KTI  SZX  K6  K6   926  926 F   03NOV03NOV03NOV2130 0105 OK1PCFOCNA                                                                                                                                                                                                                                                                                                
07000001801882405063511  40011009669240  4XX        00000000866                                                                                     00000000000CNY0            00000000000                                                                                     00000000000      XX                                                                                                              
08000001811882405063511  40011009669240  400KTI K6 SZX35.00NUC35.00END ROE1.00                                                     1                                                                                       0                                                                                       0                                                                                       0    
24000001821882405063511  40011009669240  4                                                                                                                                                                                                                                                                             MDG  M12 N  K6 IT 0000000000MDG  50GF                                 MDG  MDG           
25000001831882405063511  40011009669240  4                                                Y0MDG  MDG  M1200000000005202509062149MDG  MDG  M1200000000005202509062149                                  00000000000                                                                                                                                                                                               
01000001841882405063512  50011009669250  0TKTT    /   0101          FVVV               0011AA/YTJEEY       YANG/CHENGCHENG MR                               20250907A08383034                       U        CN     MDGTOCN                     00000000                                                                                               X   06    405                                            
02000001851882405063512  50011009669250  0MDG   20250906                              18128861151-                                                                    2149000006SEP                                                                                                                                                                                                                             
03000001861882405063512  50011009669250  0                                       IT         IT               322YQ       43YR      251XT           ITWA200401KH   ADT                                                                                 NON-END/REROUTE/RESTRICTION APPLY/ TICKET CNT                                                                                                             
04000001871882405063512  50011009669250  00000000086600000003500USD200000000250CNY0      0000000000000000      0000000000000000      00000000000000000000000000000000  000000000000000000000000000000000YQF     00000000322YRI     00000000043KX      00000000215L5      00000000036        00000000000        00000000000        00000000000        00000000000        00000000000                             
05000001881882405063512  50011009669250  01  KTI  SZX  K6  K6   926  926 F   03NOV03NOV03NOV2130 0105 OK1PCFOCNA                                                                                                                                                                                                                                                                                                
07000001891882405063512  50011009669250  0XX        00000000866                                                                                     00000000000CNY0            00000000000                                                                                     00000000000      XX                                                                                                              
08000001901882405063512  50011009669250  000KTI K6 SZX35.00NUC35.00END ROE1.00                                                     1                                                                                       0                                                                                       0                                                                                       0    
24000001911882405063512  50011009669250  0                                                                                                                                                                                                                                                                             MDG  M12 N  K6 IT 0000000000MDG  50GF                                 MDG  MDG           
25000001921882405063512  50011009669250  0                                                Y0MDG  MDG  M1200000000005202509062149MDG  MDG  M1200000000005202509062149                                  00000000000                                                                                                                                                                                               
01000001931882405063513  60011009669260  3TKTT    /   0101          FVVV               0011AA/LTUJSP       FAN/BAOKUN MR                                    20250907A08383034                       U        CN     MDGTOCN                     00000000                                                                                               X   06    405                                            
02000001941882405063513  60011009669260  3MDG   20250906                              18128861151-                                                                    2212000006SEP                                                                                                                                                                                                                             
03000001951882405063513  60011009669260  3                                       IT                          322YQ       43YR       90CN           ITWA200401KH   ADT                                                                                 NON-END/REROUTE/RESTRICTION APPLY/ TICKET CNT                                                                                                             
04000001961882405063513  60011009669260  30000000110500000000650CNY000000000000          0000000000000000      0000000000000000      00000000000000000000000000000000  000000000000000000000000000000000YQF     00000000322YRI     00000000043CN      00000000090        00000000000        00000000000        00000000000        00000000000        00000000000        00000000000                             
05000001971882405063513  60011009669260  31  CAN  KTI  K6  K6   669  669 Q   10SEP10SEP10SEP1325 1520 OK1PCQOCNA                                                                                                                                                                                                                                                                                                
07000001981882405063513  60011009669260  3XX        00000001105                                                                                     00000000000CNY0            00000000000                                                                                     00000000000      XX                                                                                                              
08000001991882405063513  60011009669260  300CAN K6 KTI90.42NUC90.42END ROE7.188637                                                 1                                                                                       0                                                                                       0                                                                                       0    
24000002001882405063513  60011009669260  3                                                                                                                                                                                                                                                                             MDG  M12 N  K6 IT 0000000000MDG  50GF                                 MDG  MDG           
25000002011882405063513  60011009669260  3                                                Y0MDG  MDG  M1200000000005202509062212MDG  MDG  M1200000000005202509062212                                  00000000000                                                                                                                                                                                               
01000002021882405063514  00011009669270  6TKTT    /   0101          FVVV               0011AA/LQUUTR       LIN/GAOPING MR                                   20250907A08383034                       U        CN     MDGTOCN                     00000000                                                                                               X   06    405                                            
02000002031882405063514  00011009669270  6MDG   20250906                              19836222397-                                                                    2213000006SEP                                                                                                                                                                                                                             
03000002041882405063514  00011009669270  6                                       IT         IT               322YQ       43YR      251XT           ITWA200401KH   ADT                                                                                 NON-END/REROUTE/RESTRICTION APPLY/ TICKET CJX                                                                                                             
04000002051882405063514  00011009669270  60000000086600000003500USD200000000250CNY0      0000000000000000      0000000000000000      00000000000000000000000000000000  000000000000000000000000000000000YQF     00000000322YRI     00000000043KX      00000000215L5      00000000036        00000000000        00000000000        00000000000        00000000000        00000000000                             
05000002061882405063514  00011009669270  61  PNH  CAN  K6  K6   610  610 A   07SEP07SEP07SEP2350 0400 OK1PCAOCNA                                                                                                                                                                                                                                                                                                
07000002071882405063514  00011009669270  6XX        00000000866                                                                                     00000000000CNY0            00000000000                                                                                     00000000000      XX                                                                                                              
08000002081882405063514  00011009669270  600PNH K6 CAN35.00NUC35.00END ROE1.00                                                     1                                                                                       0                                                                                       0                                                                                       0    
24000002091882405063514  00011009669270  6                                                                                                                                                                                                                                                                             MDG  M12 N  K6 IT 0000000000MDG  50GF                                 MDG  MDG           
25000002101882405063514  00011009669270  6                                                Y0MDG  MDG  M1200000000005202509062213MDG  MDG  M1200000000005202509062213                                  00000000000                                                                                                                                                                                               
01000002111882405063515  10011009669280  2TKTT    /   0101          FVVV               0011AA/LRICLR       ZHONG/SHAOJUN MR                                 20250907A08383034                       U        CN     MDGTOCN                     00000000                                                                                               X   06    405                                            
02000002121882405063515  10011009669280  2MDG   20250906                              19836222397-                                                                    2220000006SEP                                                                                                                                                                                                                             
03000002131882405063515  10011009669280  2                                       IT                          322YQ       43YR       90CN           ITWA200401KH   ADT                                                                                 NON-END/REROUTE/RESTRICTION APPLY/ TICKET CJX                                                                                                             
04000002141882405063515  10011009669280  20000000080500000000350CNY000000000000          0000000000000000      0000000000000000      00000000000000000000000000000000  000000000000000000000000000000000YQF     00000000322YRI     00000000043CN      00000000090        00000000000        00000000000        00000000000        00000000000        00000000000        00000000000                             
05000002151882405063515  10011009669280  21  CAN  KTI  K6  K6   669  669 A   12SEP12SEP12SEP1325 1520 OK1PCAOCNA                                                                                                                                                                                                                                                                                                
07000002161882405063515  10011009669280  2XX        00000000805                                                                                     00000000000CNY0            00000000000                                                                                     00000000000      XX                                                                                                              
08000002171882405063515  10011009669280  200CAN K6 KTI48.68NUC48.68END ROE7.188637                                                 1                                                                                       0                                                                                       0                                                                                       0    
24000002181882405063515  10011009669280  2                                                                                                                                                                                                                                                                             MDG  M12 N  K6 IT 0000000000MDG  50GF                                 MDG  MDG           
25000002191882405063515  10011009669280  2                                                Y0MDG  MDG  M1200000000005202509062220MDG  MDG  M1200000000005202509062220                                  00000000000                                                                                                                                                                                               
01000002201882405063516  20011009669290  5TKTT    /   0101          FVVV               0011AA/LQQGPN       JI/YUANYI MR                                     20250907A08383034                       U        CN     MDGTOCN                     00000000                                                                                               X   06    405                                            
02000002211882405063516  20011009669290  5MDG   20250906                              19836222397-                                                                    2222000006SEP                                                                                                                                                                                                                             
03000002221882405063516  20011009669290  5                                       IT                          322YQ       43YR       90CN           ITWA200401KH   ADT                                                                                 NON-END/REROUTE/RESTRICTION APPLY/ TICKET CJX                                                                                                             
04000002231882405063516  20011009669290  50000000080500000000350CNY000000000000          0000000000000000      0000000000000000      00000000000000000000000000000000  000000000000000000000000000000000YQF     00000000322YRI     00000000043CN      00000000090        00000000000        00000000000        00000000000        00000000000        00000000000        00000000000                             
05000002241882405063516  20011009669290  51  CAN  KTI  K6  K6   669  669 A   12SEP12SEP12SEP1325 1520 OK1PCAOCNA                                                                                                                                                                                                                                                                                                
07000002251882405063516  20011009669290  5XX        00000000805                                                                                     00000000000CNY0            00000000000                                                                                     00000000000      XX                                                                                                              
08000002261882405063516  20011009669290  500CAN K6 KTI48.68NUC48.68END ROE7.188637                                                 1                                                                                       0                                                                                       0                                                                                       0    
24000002271882405063516  20011009669290  5                                                                                                                                                                                                                                                                             MDG  M12 N  K6 IT 0000000000MDG  50GF                                 MDG  MDG           
25000002281882405063516  20011009669290  5                                                Y0MDG  MDG  M1200000000005202509062222MDG  MDG  M1200000000005202509062222                                  00000000000                                                                                                                                                                                               
01000002291882405063517  30011009669300  1TKTT    /   0101          FVVV               0011AA/CYLQTV       WANG/SHUAI MR                                    20250907A08383034                       U        CN     MDGTOCN                     00000000                                                                                               X   06    405                                            
02000002301882405063517  30011009669300  1MDG   20250906                              19836222397-                                                                    2224000006SEP                                                                                                                                                                                                                             
03000002311882405063517  30011009669300  1                                       IT         IT               322YQ       43YR      251XT           ITWA200401KH   ADT                                                                                 NON-END/REROUTE/RESTRICTION APPLY/ TICKET CJX                                                                                                             
04000002321882405063517  30011009669300  10000000101600000005500USD200000000400CNY0      0000000000000000      0000000000000000      00000000000000000000000000000000  000000000000000000000000000000000YQF     00000000322YRI     00000000043KX      00000000215L5      00000000036        00000000000        00000000000        00000000000        00000000000        00000000000                             
05000002331882405063517  30011009669300  11  PNH  CAN  K6  K6   668  668 P   08SEP08SEP08SEP0835 1235 OK1PCPOCNA                                                                                                                                                                                                                                                                                                
07000002341882405063517  30011009669300  1XX        00000001016                                                                                     00000000000CNY0            00000000000                                                                                     00000000000      XX                                                                                                              
08000002351882405063517  30011009669300  100PNH K6 CAN55.00NUC55.00END ROE1.00                                                     1                                                                                       0                                                                                       0                                                                                       0    
24000002361882405063517  30011009669300  1                                                                                                                                                                                                                                                                             MDG  M12 N  K6 IT 0000000000MDG  50GF                                 MDG  MDG           
25000002371882405063517  30011009669300  1                                                Y0MDG  MDG  M1200000000005202509062224MDG  MDG  M1200000000005202509062224                                  00000000000                                                                                                                                                                                               
01000002381882405063518  40011009669310  4TKTT    /   0101          FVVV               0011AA/LVQIOK       LIU/DIQIANG MR                                   20250907A08383034                       U        CN     MDGTOCN                     00000000                                                                                               X   06    405                                            
02000002391882405063518  40011009669310  4MDG   20250906                              19836222397-                                                                    2230000006SEP                                                                                                                                                                                                                             
03000002401882405063518  40011009669310  4                                       IT         IT               322YQ       43YR      251XT           ITWA200401KH   ADT                                                                                 NON-END/REROUTE/RESTRICTION APPLY/ TICKET CJX                                                                                                             
04000002411882405063518  40011009669310  40000000086600000003500USD200000000250CNY0      0000000000000000      0000000000000000      00000000000000000000000000000000  000000000000000000000000000000000YQF     00000000322YRI     00000000043KX      00000000215L5      00000000036        00000000000        00000000000        00000000000        00000000000        00000000000                             
05000002421882405063518  40011009669310  41  KTI  CAN  K6  K6   610  610 A   11OCT11OCT11OCT2350 0400 OK1PCAOCNA                                                                                                                                                                                                                                                                                                
07000002431882405063518  40011009669310  4XX        00000000866                                                                                     00000000000CNY0            00000000000                                                                                     00000000000      XX                                                                                                              
08000002441882405063518  40011009669310  400KTI K6 CAN35.00NUC35.00END ROE1.00                                                     1                                                                                       0                                                                                       0                                                                                       0    
24000002451882405063518  40011009669310  4                                                                                                                                                                                                                                                                             MDG  M12 N  K6 IT 0000000000MDG  50GF                                 MDG  MDG           
25000002461882405063518  40011009669310  4                                                Y0MDG  MDG  M1200000000005202509062230MDG  MDG  M1200000000005202509062230                                  00000000000                                                                                                                                                                                               
01000002471882405063519  50011009669320  0TKTT    /   0101          FVVV               0011AA/LVQIOK       CAI/MEILING MS                                   20250907A08383034                       U        CN     MDGTOCN                     00000000                                                                                               X   06    405                                            
02000002481882405063519  50011009669320  0MDG   20250906                              19836222397-                                                                    2230000006SEP                                                                                                                                                                                                                             
