TCNXMT1W K6                  000005130090225                                                                                                                                                                                                                                                                                                                                                                    
01000000011882105057910  00011009660276  0TKTT    /   0101          FVVV               0011AA/FRCUIX       SHILLER/MITCHELL BENJAMIN MR                     20250902A07100063                       U        VN     JYZSWVN                     00000000                                                                                               X   06    405                                            
02000000021882105057910  00011009660276  0JYZ   20250901                              86--15717734                                                                    2155000001SEP                                                                                                                                                                                                                             
03000000031882105057910  00011009660276  0                                       USD  195.00               36.00YQ    12.00YR    22.00XTUSD  265.00               ADTADT                                                                              NON-END/REROUTE/RESTRICTION APPLY                                                                                                                         
04000000041882105057910  00011009660276  00000002650000000019500USD200000000000          0000000000000000      0000000000000000      00000000000000000000000000000000  000000000000000000000000000000000YQF     00000003600YRI     00000001200JC      00000002000C4      00000000200        00000000000        00000000000        00000000000        00000000000        00000000000                             
05000000051882105057910  00011009660276  01  DAD  SAI  K6  K6  841  841  K   27NOV27NOV27NOV1520 1640 OK1PCKOWB                                                                                                                                                                                                                                                                                                 
07000000061882105057910  00011009660276  0CCVI      00000026500436471XXXXXX9559   1227 154362                                                       00000000000USD2            00000000000                                                                                     00000000000      VI436471XXXXXX9559 1227 154362                                                                                  
08000000071882105057910  00011009660276  000DAD K6 SAI195.00NUC195.00END ROE1.00                                                   1                                                                                       0                                                                                       0                                                                                       0    
24000000081882105057910  00011009660276  0                                                                                                                                                                                                                                                                             JYZ  SS1*N  K6    0000000000KYY  502A                                 JYZ  JYZ           
25000000091882105057910  00011009660276  0                                                Y0JYZ  KYY  SS100000000005202509012154JYZ  KYY  SS100000000005202509012154                                  00000000000                                                                                                                                                                                               
01000000101882105057911  10011009660286  3TKTT    /   0101          FVVV               0011AA/FRCUIX       AMMENDOLEA/CATERINA MS                           20250902A07100063                       U        VN     JYZSWVN                     00000000                                                                                               X   06    405                                            
02000000111882105057911  10011009660286  3JYZ   20250901                              86--15717734                                                                    2155000001SEP                                                                                                                                                                                                                             
03000000121882105057911  10011009660286  3                                       USD  195.00               36.00YQ    12.00YR    22.00XTUSD  265.00               ADTADT                                                                              NON-END/REROUTE/RESTRICTION APPLY                                                                                                                         
04000000131882105057911  10011009660286  30000002650000000019500USD200000000000          0000000000000000      0000000000000000      00000000000000000000000000000000  000000000000000000000000000000000YQF     00000003600YRI     00000001200JC      00000002000C4      00000000200        00000000000        00000000000        00000000000        00000000000        00000000000                             
05000000141882105057911  10011009660286  31  DAD  SAI  K6  K6  841  841  K   27NOV27NOV27NOV1520 1640 OK1PCKOWB                                                                                                                                                                                                                                                                                                 
07000000151882105057911  10011009660286  3CCVI      00000026500436471XXXXXX9559   1227 154362                                                       00000000000USD2            00000000000                                                                                     00000000000      VI436471XXXXXX9559 1227 154362                                                                                  
08000000161882105057911  10011009660286  300DAD K6 SAI195.00NUC195.00END ROE1.00                                                   1                                                                                       0                                                                                       0                                                                                       0    
24000000171882105057911  10011009660286  3                                                                                                                                                                                                                                                                             JYZ  SS1*N  K6    0000000000KYY  502A                                 JYZ  JYZ           
25000000181882105057911  10011009660286  3                                                Y0JYZ  KYY  SS100000000005202509012154JYZ  KYY  SS100000000005202509012154                                  00000000000                                                                                                                                                                                               
01000000191882105057912  20011009660296  6TKTT    /   0101          FVVV               0011AA/FRCUIX       SHEVELL/MICHAEL MR                               20250902A07100063                       U        VN     JYZSWVN                     00000000                                                                                               X   06    405                                            
02000000201882105057912  20011009660296  6JYZ   20250901                              86--15717734                                                                    2155000001SEP                                                                                                                                                                                                                             
03000000211882105057912  20011009660296  6                                       USD  195.00               36.00YQ    12.00YR    22.00XTUSD  265.00               ADTADT                                                                              NON-END/REROUTE/RESTRICTION APPLY                                                                                                                         
04000000221882105057912  20011009660296  60000002650000000019500USD200000000000          0000000000000000      0000000000000000      00000000000000000000000000000000  000000000000000000000000000000000YQF     00000003600YRI     00000001200JC      00000002000C4      00000000200        00000000000        00000000000        00000000000        00000000000        00000000000                             
05000000231882105057912  20011009660296  61  DAD  SAI  K6  K6  841  841  K   27NOV27NOV27NOV1520 1640 OK1PCKOWB                                                                                                                                                                                                                                                                                                 
07000000241882105057912  20011009660296  6CCVI      00000026500436471XXXXXX9559   1227 154362                                                       00000000000USD2            00000000000                                                                                     00000000000      VI436471XXXXXX9559 1227 154362                                                                                  
08000000251882105057912  20011009660296  600DAD K6 SAI195.00NUC195.00END ROE1.00                                                   1                                                                                       0                                                                                       0                                                                                       0    
24000000261882105057912  20011009660296  6                                                                                                                                                                                                                                                                             JYZ  SS1*N  K6    0000000000KYY  502A                                 JYZ  JYZ           
25000000271882105057912  20011009660296  6                                                Y0JYZ  KYY  SS100000000005202509012154JYZ  KYY  SS100000000005202509012154                                  00000000000                                                                                                                                                                                               
01000000281882105057913  30011009660306  2TKTT    /   0101          FVVV               0011AA/FRCUIX       MAJNEMER/ANNETTE MS                              20250902A07100063                       U        VN     JYZSWVN                     00000000                                                                                               X   06    405                                            
02000000291882105057913  30011009660306  2JYZ   20250901                              86--15717734                                                                    2155000001SEP                                                                                                                                                                                                                             
03000000301882105057913  30011009660306  2                                       USD  195.00               36.00YQ    12.00YR    22.00XTUSD  265.00               ADTADT                                                                              NON-END/REROUTE/RESTRICTION APPLY                                                                                                                         
04000000311882105057913  30011009660306  20000002650000000019500USD200000000000          0000000000000000      0000000000000000      00000000000000000000000000000000  000000000000000000000000000000000YQF     00000003600YRI     00000001200JC      00000002000C4      00000000200        00000000000        00000000000        00000000000        00000000000        00000000000                             
05000000321882105057913  30011009660306  21  DAD  SAI  K6  K6  841  841  K   27NOV27NOV27NOV1520 1640 OK1PCKOWB                                                                                                                                                                                                                                                                                                 
07000000331882105057913  30011009660306  2CCVI      00000026500436471XXXXXX9559   1227 154362                                                       00000000000USD2            00000000000                                                                                     00000000000      VI436471XXXXXX9559 1227 154362                                                                                  
08000000341882105057913  30011009660306  200DAD K6 SAI195.00NUC195.00END ROE1.00                                                   1                                                                                       0                                                                                       0                                                                                       0    
24000000351882105057913  30011009660306  2                                                                                                                                                                                                                                                                             JYZ  SS1*N  K6    0000000000KYY  502A                                 JYZ  JYZ           
25000000361882105057913  30011009660306  2                                                Y0JYZ  KYY  SS100000000005202509012154JYZ  KYY  SS100000000005202509012154                                  00000000000                                                                                                                                                                                               
01000000371882105057914  40011009660316  5TKTT    /   0101          FFVV               0011AA/SHIFUU       LECOMTE/SIMON MR                                 20250902A07100041                       U        TH     JTTSWTH                     00000000                                                                                               X   06    405                                            
02000000381882105057914  40011009660316  5JTT   20250901                              66--96267758                                                                    2158000001SEP                                   01SEP                                                                                                                                                                                     
03000000391882105057914  40011009660316  5                                       THB    1545                1820YQ      390YR     1970XTTHB    5725               ADTADT                                                                              NON-END/REROUTE/RESTRICTION APPLY                                                                                                                         
04000000401882105057914  40011009660316  50000000572500000001545THB000000000000          0000000000000000      0000000000000000      00000000000000000000000000000000  000000000000000000000000000000000YQF     00000001820YRI     00000000390TS      00000000730G8      00000000015G82     00000000015E7      00000000035E72     00000000035KX      00000000975L5      00000000165                             
05000000411882105057914  40011009660316  51 OBKK  KTI  K6  K6  723  723  R   12SEP12SEP12SEP1020 1125 OK1PCRR1MWB                  2  KTI  BKK  K6  K6  724  724  X   19SEP19SEP19SEP1210 1325 OK1PCXR6MWB                                                                                                                                                                                                      
07000000421882105057914  40011009660316  5CCCA      00000005725523962XXXXXX8970   0528 T83113                                                       00000000000THB0            00000000000                                                                                     00000000000      CA523962XXXXXX8970 0528 T83113                                                                                  
08000000431882105057914  40011009660316  500BKK K6 KTI18.20K6 BKK28.60NUC46.80END ROE32.9512                                       1                                                                                       0                                                                                       0                                                                                       0    
24000000441882105057914  40011009660316  5                                                                                                                                                                                                                                                                             JTT  SS1*N  K6    0000000000KYY  502A                                 JTT  JTT           
25000000451882105057914  40011009660316  5                                                Y0JTT  KYY  SS100000000005202509012157JTT  KYY  SS100000000005202509012157                                  00000000000                                                                                                                                                                                               
01000000461882105057915  50011009662376  0TKTT    /   0101          FVVV               0011AA/FQZTPL       DANG/NHAT XUAN MS                                20250902A07100063                       U        VN     JYZSWVN                     00000000                                                                                               X   06    405                                            
02000000471882105057915  50011009662376  0JYZ   20250901                              84--90240405                                                                    2331000001SEP             98549396                                                                                                                                                                                                        
03000000481882105057915  50011009662376  0                                       USD   65.00               36.00YQ    12.00YR    22.00XTUSD  135.00               ADTADT                                                                              NON-END/REROUTE/RESTRICTION APPLY                                                                                                                         
04000000491882105057915  50011009662376  00000001350000000006500USD200000000000          0000000000000000      0000000000000000      00000000000000000000000000000000  000000000000000000000000000000000YQF     00000003600YRI     00000001200JC      00000002000C4      00000000200        00000000000        00000000000        00000000000        00000000000        00000000000                             
05000000501882105057915  50011009662376  01  SGN  SAI  K6  K6  829  829  T   30NOV30NOV30NOV1600 1730 OK1PCTOWB                                                                                                                                                                                                                                                                                                 
07000000511882105057915  50011009662376  0CCCA      00000013500546285XXXXXX3870   0626 950270                                                       00000000000USD2            00000000000                                                                                     00000000000      CA546285XXXXXX3870 0626 950270                                                                                  
08000000521882105057915  50011009662376  000SGN K6 SAI65.00NUC65.00END ROE1.00                                                     1                                                                                       0                                                                                       0                                                                                       0    
24000000531882105057915  50011009662376  0                                                                                                                                                                                                                                                                             JYZ  SS1*N  K6    0000000000KYY  502A                                 JYZ  JYZ           
25000000541882105057915  50011009662376  0                                                Y0JYZ  KYY  SS100000000005202509012330JYZ  KYY  SS100000000005202509012330                                  00000000000                                                                                                                                                                                               
01000000551882105057916  60011009662386  3TKTT    /   0101          FVVV               0011AA/FQZTPL       SIMMONDS/JEROME ETIENNE MR                       20250902A07100063                       U        VN     JYZSWVN                     00000000                                                                                               X   06    405                                            
02000000561882105057916  60011009662386  3JYZ   20250901                              84--90240405                                                                    2331000001SEP                                                                                                                                                                                                                             
03000000571882105057916  60011009662386  3                                       USD   65.00               36.00YQ    12.00YR    22.00XTUSD  135.00               ADTADT                                                                              NON-END/REROUTE/RESTRICTION APPLY                                                                                                                         
04000000581882105057916  60011009662386  30000001350000000006500USD200000000000          0000000000000000      0000000000000000      00000000000000000000000000000000  000000000000000000000000000000000YQF     00000003600YRI     00000001200JC      00000002000C4      00000000200        00000000000        00000000000        00000000000        00000000000        00000000000                             
05000000591882105057916  60011009662386  31  SGN  SAI  K6  K6  829  829  T   30NOV30NOV30NOV1600 1730 OK1PCTOWB                                                                                                                                                                                                                                                                                                 
07000000601882105057916  60011009662386  3CCCA      00000013500546285XXXXXX3870   0626 950270                                                       00000000000USD2            00000000000                                                                                     00000000000      CA546285XXXXXX3870 0626 950270                                                                                  
08000000611882105057916  60011009662386  300SGN K6 SAI65.00NUC65.00END ROE1.00                                                     1                                                                                       0                                                                                       0                                                                                       0    
24000000621882105057916  60011009662386  3                                                                                                                                                                                                                                                                             JYZ  SS1*N  K6    0000000000KYY  502A                                 JYZ  JYZ           
25000000631882105057916  60011009662386  3                                                Y0JYZ  KYY  SS100000000005202509012330JYZ  KYY  SS100000000005202509012330                                  00000000000                                                                                                                                                                                               
01000000641882105057917  00011009662396  6TKTT    /   0101          FVVV               0011AA/UMAGXS       THOMAS/MILAN ARMANDO MR                          20250902A07100063                       U        VN     JYZSWVN                     00000000                                                                                               X   06    405                                            
02000000651882105057917  00011009662396  6JYZ   20250901                              855--9533365                                                                    2346000001SEP             9501330104                                                                                                                                                                                                      
03000000661882105057917  00011009662396  6                                       USD   70.00               36.00YQ    12.00YR    22.00XTUSD  140.00               ADTADT                                                                              NON-END/REROUTE/RESTRICTION APPLY                                                                                                                         
04000000671882105057917  00011009662396  60000001400000000007000USD200000000000          0000000000000000      0000000000000000      00000000000000000000000000000000  000000000000000000000000000000000YQF     00000003600YRI     00000001200JC      00000002000C4      00000000200        00000000000        00000000000        00000000000        00000000000        00000000000                             
05000000681882105057917  00011009662396  61  SGN  PNH  K6  K6  813  813  L   03SEP03SEP03SEP0830 0915 OK1PCLOWB                                                                                                                                                                                                                                                                                                 
07000000691882105057917  00011009662396  6CCVI      00000014000414720XXXXXX4412   1029 08642D                                                       00000000000USD2            00000000000                                                                                     00000000000      VI414720XXXXXX4412 1029 08642D                                                                                  
08000000701882105057917  00011009662396  600SGN K6 PNH70.00NUC70.00END ROE1.00                                                     1                                                                                       0                                                                                       0                                                                                       0    
24000000711882105057917  00011009662396  6                                                                                                                                                                                                                                                                             JYZ  SS1*N  K6    0000000000KYY  502A                                 JYZ  JYZ           
25000000721882105057917  00011009662396  6                                                Y0JYZ  KYY  SS100000000005202509012346JYZ  KYY  SS100000000005202509012346                                  00000000000                                                                                                                                                                                               
01000000731882405057455  30013010070160  4TKTT    /   0101          FVVV               0011AA/AADEBY       LI/XIAO HONG MS                                  20250902A08383034                       U        CN     MDGTOCN                     00000000                                                                                               X   06    405                                            
02000000741882405057455  30013010070160  4MDG   20250901                              19836222397-                                                                    1937000001SEP                                                                                                                                                                                                                             
03000000751882405057455  30013010070160  4                                       IT                          321YQ       43YR       90CN           ITWA200401KH   ADT                                                                                 NON-END/REROUTE/RESTRICTION APPLY/ TICKET CJX                                                                                                             
04000000761882405057455  30013010070160  40000000110400000000650CNY000000000000          0000000000000000      0000000000000000      00000000000000000000000000000000  000000000000000000000000000000000YQF     00000000321YRI     00000000043CN      00000000090        00000000000        00000000000        00000000000        00000000000        00000000000        00000000000                             
05000000771882405057455  30013010070160  41  CAN  PNH  K6  K6   669  669 Q   05SEP05SEP05SEP1325 1520 OK1PCQOCNA                                                                                                                                                                                                                                                                                                
07000000781882405057455  30013010070160  4XX        00000001104                                                                                     00000000000CNY0            00000000000                                                                                     00000000000      XX                                                                                                              
08000000791882405057455  30013010070160  400CAN K6 PNH90.42NUC90.42END ROE7.188637                                                 1                                                                                       0                                                                                       0                                                                                       0    
24000000801882405057455  30013010070160  4                                                                                                                                                                                                                                                                             MDG  M12 N  K6 IT 0000000000MDG  50GF                                 MDG  MDG           
25000000811882405057455  30013010070160  4                                                Y0MDG  MDG  M1200000000005202509011937MDG  MDG  M1200000000005202509011937                                  00000000000                                                                                                                                                                                               
01000000821882405057456  40013010070170  0TKTT    /   0101          FVVV               0011AA/OJHPVB       SUN/JIALE MS                                     20250902A08383034                       U        CN     MDGTOCN                     00000000                                                                                               X   06    405                                            
02000000831882405057456  40013010070170  0MDG   20250901                              15090406490-                                                                    1937000001SEP                                                                                                                                                                                                                             
03000000841882405057456  40013010070170  0                                       IT                          321YQ       43YR       90CN           ITWA200401KH   ADT                                                                                 NON-END/REROUTE/RESTRICTION APPLY/ TICKET CJX                                                                                                             
04000000851882405057456  40013010070170  00000000110400000000650CNY000000000000          0000000000000000      0000000000000000      00000000000000000000000000000000  000000000000000000000000000000000YQF     00000000321YRI     00000000043CN      00000000090        00000000000        00000000000        00000000000        00000000000        00000000000        00000000000                             
05000000861882405057456  40013010070170  01  CAN  PNH  K6  K6   669  669 Q   03SEP03SEP03SEP1325 1520 OK1PCQOCNA                                                                                                                                                                                                                                                                                                
07000000871882405057456  40013010070170  0XX        00000001104                                                                                     00000000000CNY0            00000000000                                                                                     00000000000      XX                                                                                                              
08000000881882405057456  40013010070170  000CAN K6 PNH90.42NUC90.42END ROE7.188637                                                 1                                                                                       0                                                                                       0                                                                                       0    
24000000891882405057456  40013010070170  0                                                                                                                                                                                                                                                                             MDG  M12 N  K6 IT 0000000000MDG  50GF                                 MDG  MDG           
25000000901882405057456  40013010070170  0                                                Y0MDG  MDG  M1200000000005202509011937MDG  MDG  M1200000000005202509011937                                  00000000000                                                                                                                                                                                               
01000000911882405057457  50013010070180  3TKTT    /   0101          FVVV               0011AA/OJHPVB       ZHAO/MIAN MS                                     20250902A08383034                       U        CN     MDGTOCN                     00000000                                                                                               X   06    405                                            
02000000921882405057457  50013010070180  3MDG   20250901                              15090406490-                                                                    1937000001SEP                                                                                                                                                                                                                             
03000000931882405057457  50013010070180  3                                       IT                          321YQ       43YR       90CN           ITWA200401KH   ADT                                                                                 NON-END/REROUTE/RESTRICTION APPLY/ TICKET CJX                                                                                                             
04000000941882405057457  50013010070180  30000000110400000000650CNY000000000000          0000000000000000      0000000000000000      00000000000000000000000000000000  000000000000000000000000000000000YQF     00000000321YRI     00000000043CN      00000000090        00000000000        00000000000        00000000000        00000000000        00000000000        00000000000                             
05000000951882405057457  50013010070180  31  CAN  PNH  K6  K6   669  669 Q   03SEP03SEP03SEP1325 1520 OK1PCQOCNA                                                                                                                                                                                                                                                                                                
07000000961882405057457  50013010070180  3XX        00000001104                                                                                     00000000000CNY0            00000000000                                                                                     00000000000      XX                                                                                                              
08000000971882405057457  50013010070180  300CAN K6 PNH90.42NUC90.42END ROE7.188637                                                 1                                                                                       0                                                                                       0                                                                                       0    
24000000981882405057457  50013010070180  3                                                                                                                                                                                                                                                                             MDG  M12 N  K6 IT 0000000000MDG  50GF                                 MDG  MDG           
25000000991882405057457  50013010070180  3                                                Y0MDG  MDG  M1200000000005202509011937MDG  MDG  M1200000000005202509011937                                  00000000000                                                                                                                                                                                               
01000001001882405057458  60013010070190  6TKTT    /   0101          FVVV               0011AA/OJHPVB       ZHAO/SONGSONG MR                                 20250902A08383034                       U        CN     MDGTOCN                     00000000                                                                                               X   06    405                                            
02000001011882405057458  60013010070190  6MDG   20250901                              15090406490-                                                                    1937000001SEP                                                                                                                                                                                                                             
03000001021882405057458  60013010070190  6                                       IT                          321YQ       43YR       90CN           ITWA200401KH   ADT                                                                                 NON-END/REROUTE/RESTRICTION APPLY/ TICKET CJX                                                                                                             
04000001031882405057458  60013010070190  60000000110400000000650CNY000000000000          0000000000000000      0000000000000000      00000000000000000000000000000000  000000000000000000000000000000000YQF     00000000321YRI     00000000043CN      00000000090        00000000000        00000000000        00000000000        00000000000        00000000000        00000000000                             
05000001041882405057458  60013010070190  61  CAN  PNH  K6  K6   669  669 Q   03SEP03SEP03SEP1325 1520 OK1PCQOCNA                                                                                                                                                                                                                                                                                                
07000001051882405057458  60013010070190  6XX        00000001104                                                                                     00000000000CNY0            00000000000                                                                                     00000000000      XX                                                                                                              
08000001061882405057458  60013010070190  600CAN K6 PNH90.42NUC90.42END ROE7.188637                                                 1                                                                                       0                                                                                       0                                                                                       0    
24000001071882405057458  60013010070190  6                                                                                                                                                                                                                                                                             MDG  M12 N  K6 IT 0000000000MDG  50GF                                 MDG  MDG           
25000001081882405057458  60013010070190  6                                                Y0MDG  MDG  M1200000000005202509011937MDG  MDG  M1200000000005202509011937                                  00000000000                                                                                                                                                                                               
01000001091882405057459  00013010070200  2TKTT    /   0101          FVVV               0011AA/OJHPVB       JIANG/HUIJUAN MS                                 20250902A08383034                       U        CN     MDGTOCN                     00000000                                                                                               X   06    405                                            
02000001101882405057459  00013010070200  2MDG   20250901                              15090406490-                                                                    1937000001SEP                                                                                                                                                                                                                             
03000001111882405057459  00013010070200  2                                       IT                          321YQ       43YR       90CN           ITWA200401KH   ADT                                                                                 NON-END/REROUTE/RESTRICTION APPLY/ TICKET CJX                                                                                                             
04000001121882405057459  00013010070200  20000000110400000000650CNY000000000000          0000000000000000      0000000000000000      00000000000000000000000000000000  000000000000000000000000000000000YQF     00000000321YRI     00000000043CN      00000000090        00000000000        00000000000        00000000000        00000000000        00000000000        00000000000                             
05000001131882405057459  00013010070200  21  CAN  PNH  K6  K6   669  669 Q   03SEP03SEP03SEP1325 1520 OK1PCQOCNA                                                                                                                                                                                                                                                                                                
07000001141882405057459  00013010070200  2XX        00000001104                                                                                     00000000000CNY0            00000000000                                                                                     00000000000      XX                                                                                                              
08000001151882405057459  00013010070200  200CAN K6 PNH90.42NUC90.42END ROE7.188637                                                 1                                                                                       0                                                                                       0                                                                                       0    
24000001161882405057459  00013010070200  2                                                                                                                                                                                                                                                                             MDG  M12 N  K6 IT 0000000000MDG  50GF                                 MDG  MDG           
25000001171882405057459  00013010070200  2                                                Y0MDG  MDG  M1200000000005202509011937MDG  MDG  M1200000000005202509011937                                  00000000000                                                                                                                                                                                               
01000001181882405057460  10013010070210  5TKTT    /   0101          FVVV               0011AA/LYRBBP       ZHOU/ANCHAO MS                                   20250902A08383034                       U        CN     MDGTOCN                     00000000                                                                                               X   06    405                                            
02000001191882405057460  10013010070210  5MDG   20250901                              15090406490-                                                                    1938000001SEP                                                                                                                                                                                                                             
03000001201882405057460  10013010070210  5                                       IT                          321YQ       43YR       90CN           ITWA200401KH   ADT                                                                                 NON-END/REROUTE/RESTRICTION APPLY/ TICKET CJX                                                                                                             
04000001211882405057460  10013010070210  50000000110400000000650CNY000000000000          0000000000000000      0000000000000000      00000000000000000000000000000000  000000000000000000000000000000000YQF     00000000321YRI     00000000043CN      00000000090        00000000000        00000000000        00000000000        00000000000        00000000000        00000000000                             
05000001221882405057460  10013010070210  51  CAN  PNH  K6  K6   669  669 Q   03SEP03SEP03SEP1325 1520 OK1PCQOCNA                                                                                                                                                                                                                                                                                                
07000001231882405057460  10013010070210  5XX        00000001104                                                                                     00000000000CNY0            00000000000                                                                                     00000000000      XX                                                                                                              
08000001241882405057460  10013010070210  500CAN K6 PNH90.42NUC90.42END ROE7.188637                                                 1                                                                                       0                                                                                       0                                                                                       0    
24000001251882405057460  10013010070210  5                                                                                                                                                                                                                                                                             MDG  M12 N  K6 IT 0000000000MDG  50GF                                 MDG  MDG           
25000001261882405057460  10013010070210  5                                                Y0MDG  MDG  M1200000000005202509011937MDG  MDG  M1200000000005202509011937                                  00000000000                                                                                                                                                                                               
01000001271882405057461  20013010070220  1TKTT    /   0101          FVVV               0011AA/LYRBBP       LU/XIANGSONG MR                                  20250902A08383034                       U        CN     MDGTOCN                     00000000                                                                                               X   06    405                                            
02000001281882405057461  20013010070220  1MDG   20250901                              15090406490-                                                                    1938000001SEP                                                                                                                                                                                                                             
03000001291882405057461  20013010070220  1                                       IT                          321YQ       43YR       90CN           ITWA200401KH   ADT                                                                                 NON-END/REROUTE/RESTRICTION APPLY/ TICKET CJX                                                                                                             
04000001301882405057461  20013010070220  10000000110400000000650CNY000000000000          0000000000000000      0000000000000000      00000000000000000000000000000000  000000000000000000000000000000000YQF     00000000321YRI     00000000043CN      00000000090        00000000000        00000000000        00000000000        00000000000        00000000000        00000000000                             
05000001311882405057461  20013010070220  11  CAN  PNH  K6  K6   669  669 Q   03SEP03SEP03SEP1325 1520 OK1PCQOCNA                                                                                                                                                                                                                                                                                                
07000001321882405057461  20013010070220  1XX        00000001104                                                                                     00000000000CNY0            00000000000                                                                                     00000000000      XX                                                                                                              
08000001331882405057461  20013010070220  100CAN K6 PNH90.42NUC90.42END ROE7.188637                                                 1                                                                                       0                                                                                       0                                                                                       0    
24000001341882405057461  20013010070220  1                                                                                                                                                                                                                                                                             MDG  M12 N  K6 IT 0000000000MDG  50GF                                 MDG  MDG           
25000001351882405057461  20013010070220  1                                                Y0MDG  MDG  M1200000000005202509011937MDG  MDG  M1200000000005202509011937                                  00000000000                                                                                                                                                                                               
01000001361882405057462  30013010070230  4TKTT    /   0101          FVVV               0011AA/LYRBBP       HUANG/GUO MR                                     20250902A08383034                       U        CN     MDGTOCN                     00000000                                                                                               X   06    405                                            
02000001371882405057462  30013010070230  4MDG   20250901                              15090406490-                                                                    1938000001SEP                                                                                                                                                                                                                             
03000001381882405057462  30013010070230  4                                       IT                          321YQ       43YR       90CN           ITWA200401KH   ADT                                                                                 NON-END/REROUTE/RESTRICTION APPLY/ TICKET CJX                                                                                                             
04000001391882405057462  30013010070230  40000000110400000000650CNY000000000000          0000000000000000      0000000000000000      00000000000000000000000000000000  000000000000000000000000000000000YQF     00000000321YRI     00000000043CN      00000000090        00000000000        00000000000        00000000000        00000000000        00000000000        00000000000                             
05000001401882405057462  30013010070230  41  CAN  PNH  K6  K6   669  669 Q   03SEP03SEP03SEP1325 1520 OK1PCQOCNA                                                                                                                                                                                                                                                                                                
07000001411882405057462  30013010070230  4XX        00000001104                                                                                     00000000000CNY0            00000000000                                                                                     00000000000      XX                                                                                                              
08000001421882405057462  30013010070230  400CAN K6 PNH90.42NUC90.42END ROE7.188637                                                 1                                                                                       0                                                                                       0                                                                                       0    
24000001431882405057462  30013010070230  4                                                                                                                                                                                                                                                                             MDG  M12 N  K6 IT 0000000000MDG  50GF                                 MDG  MDG           
25000001441882405057462  30013010070230  4                                                Y0MDG  MDG  M1200000000005202509011937MDG  MDG  M1200000000005202509011937                                  00000000000                                                                                                                                                                                               
01000001451882405057463  40013010070240  0TKTT    /   0101          FVVV               0011AA/LYRBBP       LI/YUCHENG MR                                    20250902A08383034                       U        CN     MDGTOCN                     00000000                                                                                               X   06    405                                            
02000001461882405057463  40013010070240  0MDG   20250901                              15090406490-                                                                    1938000001SEP                                                                                                                                                                                                                             
03000001471882405057463  40013010070240  0                                       IT                          321YQ       43YR       90CN           ITWA200401KH   ADT                                                                                 NON-END/REROUTE/RESTRICTION APPLY/ TICKET CJX                                                                                                             
04000001481882405057463  40013010070240  00000000110400000000650CNY000000000000          0000000000000000      0000000000000000      00000000000000000000000000000000  000000000000000000000000000000000YQF     00000000321YRI     00000000043CN      00000000090        00000000000        00000000000        00000000000        00000000000        00000000000        00000000000                             
05000001491882405057463  40013010070240  01  CAN  PNH  K6  K6   669  669 Q   03SEP03SEP03SEP1325 1520 OK1PCQOCNA                                                                                                                                                                                                                                                                                                
07000001501882405057463  40013010070240  0XX        00000001104                                                                                     00000000000CNY0            00000000000                                                                                     00000000000      XX                                                                                                              
08000001511882405057463  40013010070240  000CAN K6 PNH90.42NUC90.42END ROE7.188637                                                 1                                                                                       0                                                                                       0                                                                                       0    
24000001521882405057463  40013010070240  0                                                                                                                                                                                                                                                                             MDG  M12 N  K6 IT 0000000000MDG  50GF                                 MDG  MDG           
25000001531882405057463  40013010070240  0                                                Y0MDG  MDG  M1200000000005202509011937MDG  MDG  M1200000000005202509011937                                  00000000000                                                                                                                                                                                               
01000001541882405057464  50013010070250  3TKTT    /   0101          FVVV               0011AA/ABABLG       LIN/YUE MR                                       20250902A08383034                       U        CN     MDGTOCN                     00000000                                                                                               X   06    405                                            
02000001551882405057464  50013010070250  3MDG   20250901                              15090406490-                                                                    1938000001SEP                                                                                                                                                                                                                             
03000001561882405057464  50013010070250  3                                       IT                          321YQ       43YR       90CN           ITWA200401KH   ADT                                                                                 NON-END/REROUTE/RESTRICTION APPLY/ TICKET CJX                                                                                                             
04000001571882405057464  50013010070250  30000000110400000000650CNY000000000000          0000000000000000      0000000000000000      00000000000000000000000000000000  000000000000000000000000000000000YQF     00000000321YRI     00000000043CN      00000000090        00000000000        00000000000        00000000000        00000000000        00000000000        00000000000                             
05000001581882405057464  50013010070250  31  CAN  PNH  K6  K6   669  669 Q   03SEP03SEP03SEP1325 1520 OK1PCQOCNA                                                                                                                                                                                                                                                                                                
07000001591882405057464  50013010070250  3XX        00000001104                                                                                     00000000000CNY0            00000000000                                                                                     00000000000      XX                                                                                                              
08000001601882405057464  50013010070250  300CAN K6 PNH90.42NUC90.42END ROE7.188637                                                 1                                                                                       0                                                                                       0                                                                                       0    
24000001611882405057464  50013010070250  3                                                                                                                                                                                                                                                                             MDG  M12 N  K6 IT 0000000000MDG  50GF                                 MDG  MDG           
25000001621882405057464  50013010070250  3                                                Y0MDG  MDG  M1200000000005202509011938MDG  MDG  M1200000000005202509011938                                  00000000000                                                                                                                                                                                               
01000001631882405057465  60013010070260  6TKTT    /   0101          FVVV               0011AA/ABABLG       WANG/ZHONGYI MR                                  20250902A08383034                       U        CN     MDGTOCN                     00000000                                                                                               X   06    405                                            
02000001641882405057465  60013010070260  6MDG   20250901                              15090406490-                                                                    1938000001SEP                                                                                                                                                                                                                             
03000001651882405057465  60013010070260  6                                       IT                          321YQ       43YR       90CN           ITWA200401KH   ADT                                                                                 NON-END/REROUTE/RESTRICTION APPLY/ TICKET CJX                                                                                                             
04000001661882405057465  60013010070260  60000000110400000000650CNY000000000000          0000000000000000      0000000000000000      00000000000000000000000000000000  000000000000000000000000000000000YQF     00000000321YRI     00000000043CN      00000000090        00000000000        00000000000        00000000000        00000000000        00000000000        00000000000                             
05000001671882405057465  60013010070260  61  CAN  PNH  K6  K6   669  669 Q   03SEP03SEP03SEP1325 1520 OK1PCQOCNA                                                                                                                                                                                                                                                                                                
07000001681882405057465  60013010070260  6XX        00000001104                                                                                     00000000000CNY0            00000000000                                                                                     00000000000      XX                                                                                                              
08000001691882405057465  60013010070260  600CAN K6 PNH90.42NUC90.42END ROE7.188637                                                 1                                                                                       0                                                                                       0                                                                                       0    
24000001701882405057465  60013010070260  6                                                                                                                                                                                                                                                                             MDG  M12 N  K6 IT 0000000000MDG  50GF                                 MDG  MDG           
25000001711882405057465  60013010070260  6                                                Y0MDG  MDG  M1200000000005202509011938MDG  MDG  M1200000000005202509011938                                  00000000000                                                                                                                                                                                               
01000001721882405057466  00013010070270  2TKTT    /   0101          FVVV               0011AA/ABABLG       CHEN/ZHUOLIN MR                                  20250902A08383034                       U        CN     MDGTOCN                     00000000                                                                                               X   06    405                                            
02000001731882405057466  00013010070270  2MDG   20250901                              15090406490-                                                                    1938000001SEP                                                                                                                                                                                                                             
03000001741882405057466  00013010070270  2                                       IT                          321YQ       43YR       90CN           ITWA200401KH   ADT                                                                                 NON-END/REROUTE/RESTRICTION APPLY/ TICKET CJX                                                                                                             
04000001751882405057466  00013010070270  20000000110400000000650CNY000000000000          0000000000000000      0000000000000000      00000000000000000000000000000000  000000000000000000000000000000000YQF     00000000321YRI     00000000043CN      00000000090        00000000000        00000000000        00000000000        00000000000        00000000000        00000000000                             
05000001761882405057466  00013010070270  21  CAN  PNH  K6  K6   669  669 Q   03SEP03SEP03SEP1325 1520 OK1PCQOCNA                                                                                                                                                                                                                                                                                                
07000001771882405057466  00013010070270  2XX        00000001104                                                                                     00000000000CNY0            00000000000                                                                                     00000000000      XX                                                                                                              
08000001781882405057466  00013010070270  200CAN K6 PNH90.42NUC90.42END ROE7.188637                                                 1                                                                                       0                                                                                       0                                                                                       0    
24000001791882405057466  00013010070270  2                                                                                                                                                                                                                                                                             MDG  M12 N  K6 IT 0000000000MDG  50GF                                 MDG  MDG           
25000001801882405057466  00013010070270  2                                                Y0MDG  MDG  M1200000000005202509011938MDG  MDG  M1200000000005202509011938                                  00000000000                                                                                                                                                                                               
01000001811882405057467  10013010070280  5TKTT    /   0101          FVVV               0011AA/ABABLG       PANG/KAIWEN MS                                   20250902A08383034                       U        CN     MDGTOCN                     00000000                                                                                               X   06    405                                            
02000001821882405057467  10013010070280  5MDG   20250901                              15090406490-                                                                    1938000001SEP                                                                                                                                                                                                                             
03000001831882405057467  10013010070280  5                                       IT                          321YQ       43YR       90CN           ITWA200401KH   ADT                                                                                 NON-END/REROUTE/RESTRICTION APPLY/ TICKET CJX                                                                                                             
04000001841882405057467  10013010070280  50000000110400000000650CNY000000000000          0000000000000000      0000000000000000      00000000000000000000000000000000  000000000000000000000000000000000YQF     00000000321YRI     00000000043CN      00000000090        00000000000        00000000000        00000000000        00000000000        00000000000        00000000000                             
05000001851882405057467  10013010070280  51  CAN  PNH  K6  K6   669  669 Q   03SEP03SEP03SEP1325 1520 OK1PCQOCNA                                                                                                                                                                                                                                                                                                
07000001861882405057467  10013010070280  5XX        00000001104                                                                                     00000000000CNY0            00000000000                                                                                     00000000000      XX                                                                                                              
08000001871882405057467  10013010070280  500CAN K6 PNH90.42NUC90.42END ROE7.188637                                                 1                                                                                       0                                                                                       0                                                                                       0    
24000001881882405057467  10013010070280  5                                                                                                                                                                                                                                                                             MDG  M12 N  K6 IT 0000000000MDG  50GF                                 MDG  MDG           
25000001891882405057467  10013010070280  5                                                Y0MDG  MDG  M1200000000005202509011938MDG  MDG  M1200000000005202509011938                                  00000000000                                                                                                                                                                                               
01000001901882405057468  20013010070290  1TKTT    /   0101          FVVV               0011AA/WOLHIS       HU/GUANGSHEN MR                                  20250902A08383034                       U        CN     MDGTOCN                     00000000                                                                                               X   06    405                                            
02000001911882405057468  20013010070290  1MDG   20250901                              19836222397-                                                                    1957000001SEP                                                                                                                                                                                                                             
03000001921882405057468  20013010070290  1                                       IT                          321YQ       43YR       90CN           ITWA200401KH   ADT                                                                                 NON-END/REROUTE/RESTRICTION APPLY/ TICKET CJX                                                                                                             
04000001931882405057468  20013010070290  10000000125400000000800CNY000000000000          0000000000000000      0000000000000000      00000000000000000000000000000000  000000000000000000000000000000000YQF     00000000321YRI     00000000043CN      00000000090        00000000000        00000000000        00000000000        00000000000        00000000000        00000000000                             
05000001941882405057468  20013010070290  11  CAN  PNH  K6  K6   669  669 R   02SEP02SEP02SEP1515 1710 OK1PCROCNA                                                                                                                                                                                                                                                                                                
07000001951882405057468  20013010070290  1XX        00000001254                                                                                     00000000000CNY0            00000000000                                                                                     00000000000      XX                                                                                                              
08000001961882405057468  20013010070290  100CAN K6 PNH111.28NUC111.28END ROE7.188637                                               1                                                                                       0                                                                                       0                                                                                       0    
24000001971882405057468  20013010070290  1                                                                                                                                                                                                                                                                             MDG  M12 N  K6 IT 0000000000MDG  50GF                                 MDG  MDG           
25000001981882405057468  20013010070290  1                                                Y0MDG  MDG  M1200000000005202509011957MDG  MDG  M1200000000005202509011957                                  00000000000                                                                                                                                                                                               
01000001991882405057469  30013010070300  4TKTT    /   0101          FVVV               0011AA/WTYADZ       WU/YUXIANG MS                                    20250902A08383034                       U        CN     MDGTOCN                     00000000                                                                                               X   06    405                                            
02000002001882405057469  30013010070300  4MDG   20250901                              15090406490-                                                                    1958000001SEP                                                                                                                                                                                                                             
03000002011882405057469  30013010070300  4                                       IT         IT               321YQ       43YR      250XT           ITWA200401KH   ADT                                                                                 NON-END/REROUTE/RESTRICTION APPLY/ TICKET CJX                                                                                                             
04000002021882405057469  30013010070300  40000000101400000005500USD200000000400CNY0      0000000000000000      0000000000000000      00000000000000000000000000000000  000000000000000000000000000000000YQF     00000000321YRI     00000000043KX      00000000214L5      00000000036        00000000000        00000000000        00000000000        00000000000        00000000000                             
05000002031882405057469  30013010070300  41  PNH  CAN  K6  K6   610  610 P   03SEP03SEP03SEP2350 0400 OK1PCPOCNA                                                                                                                                                                                                                                                                                                
07000002041882405057469  30013010070300  4XX        00000001014                                                                                     00000000000CNY0            00000000000                                                                                     00000000000      XX                                                                                                              
08000002051882405057469  30013010070300  400PNH K6 CAN55.00NUC55.00END ROE1.00                                                     1                                                                                       0                                                                                       0                                                                                       0    
24000002061882405057469  30013010070300  4                                                                                                                                                                                                                                                                             MDG  M12 N  K6 IT 0000000000MDG  50GF                                 MDG  MDG           
25000002071882405057469  30013010070300  4                                                Y0MDG  MDG  M1200000000005202509011958MDG  MDG  M1200000000005202509011958                                  00000000000                                                                                                                                                                                               
01000002081882405057470  40013010070310  0TKTT    /   0101          FVVV               0011AA/WTYADZ       WU/QINHONG MS                                    20250902A08383034                       U        CN     MDGTOCN                     00000000                                                                                               X   06    405                                            
02000002091882405057470  40013010070310  0MDG   20250901                              15090406490-                                                                    1958000001SEP                                                                                                                                                                                                                             
03000002101882405057470  40013010070310  0                                       IT         IT               321YQ       43YR      250XT           ITWA200401KH   ADT                                                                                 NON-END/REROUTE/RESTRICTION APPLY/ TICKET CJX                                                                                                             
04000002111882405057470  40013010070310  00000000101400000005500USD200000000400CNY0      0000000000000000      0000000000000000      00000000000000000000000000000000  000000000000000000000000000000000YQF     00000000321YRI     00000000043KX      00000000214L5      00000000036        00000000000        00000000000        00000000000        00000000000        00000000000                             
05000002121882405057470  40013010070310  01  PNH  CAN  K6  K6   610  610 P   03SEP03SEP03SEP2350 0400 OK1PCPOCNA                                                                                                                                                                                                                                                                                                
07000002131882405057470  40013010070310  0XX        00000001014                                                                                     00000000000CNY0            00000000000                                                                                     00000000000      XX                                                                                                              
08000002141882405057470  40013010070310  000PNH K6 CAN55.00NUC55.00END ROE1.00                                                     1                                                                                       0                                                                                       0                                                                                       0    
24000002151882405057470  40013010070310  0                                                                                                                                                                                                                                                                             MDG  M12 N  K6 IT 0000000000MDG  50GF                                 MDG  MDG           
25000002161882405057470  40013010070310  0                                                Y0MDG  MDG  M1200000000005202509011958MDG  MDG  M1200000000005202509011958                                  00000000000                                                                                                                                                                                               
01000002171882405057471  50013010070320  3TKTT    /   0101          FVVV               0011AA/WTYADZ       WU/YUJIAN MR                                     20250902A08383034                       U        CN     MDGTOCN                     00000000                                                                                               X   06    405                                            
02000002181882405057471  50013010070320  3MDG   20250901                              15090406490-                                                                    1958000001SEP                                                                                                                                                                                                                             
03000002191882405057471  50013010070320  3                                       IT         IT               321YQ       43YR      250XT           ITWA200401KH   ADT                                                                                 NON-END/REROUTE/RESTRICTION APPLY/ TICKET CJX                                                                                                             
04000002201882405057471  50013010070320  30000000101400000005500USD200000000400CNY0      0000000000000000      0000000000000000      00000000000000000000000000000000  000000000000000000000000000000000YQF     00000000321YRI     00000000043KX      00000000214L5      00000000036        00000000000        00000000000        00000000000        00000000000        00000000000                             
05000002211882405057471  50013010070320  31  PNH  CAN  K6  K6   610  610 P   03SEP03SEP03SEP2350 0400 OK1PCPOCNA                                                                                                                                                                                                                                                                                                
07000002221882405057471  50013010070320  3XX        00000001014                                                                                     00000000000CNY0            00000000000                                                                                     00000000000      XX                                                                                                              
08000002231882405057471  50013010070320  300PNH K6 CAN55.00NUC55.00END ROE1.00                                                     1                                                                                       0                                                                                       0                                                                                       0    
24000002241882405057471  50013010070320  3                                                                                                                                                                                                                                                                             MDG  M12 N  K6 IT 0000000000MDG  50GF                                 MDG  MDG           
25000002251882405057471  50013010070320  3                                                Y0MDG  MDG  M1200000000005202509011958MDG  MDG  M1200000000005202509011958                                  00000000000                                                                                                                                                                                               
01000002261882405057472  60013010070330  6TKTT    /   0101          FVVV               0011AA/WTYADZ       LI/HUANING MR                                    20250902A08383034                       U        CN     MDGTOCN                     00000000                                                                                               X   06    405                                            
02000002271882405057472  60013010070330  6MDG   20250901                              15090406490-                                                                    1958000001SEP                                                                                                                                                                                                                             
03000002281882405057472  60013010070330  6                                       IT         IT               321YQ       43YR      250XT           ITWA200401KH   ADT                                                                                 NON-END/REROUTE/RESTRICTION APPLY/ TICKET CJX                                                                                                             
04000002291882405057472  60013010070330  60000000101400000005500USD200000000400CNY0      0000000000000000      0000000000000000      00000000000000000000000000000000  000000000000000000000000000000000YQF     00000000321YRI     00000000043KX      00000000214L5      00000000036        00000000000        00000000000        00000000000        00000000000        00000000000                             
05000002301882405057472  60013010070330  61  PNH  CAN  K6  K6   610  610 P   03SEP03SEP03SEP2350 0400 OK1PCPOCNA                                                                                                                                                                                                                                                                                                
07000002311882405057472  60013010070330  6XX        00000001014                                                                                     00000000000CNY0            00000000000                                                                                     00000000000      XX                                                                                                              
08000002321882405057472  60013010070330  600PNH K6 CAN55.00NUC55.00END ROE1.00                                                     1                                                                                       0                                                                                       0                                                                                       0    
24000002331882405057472  60013010070330  6                                                                                                                                                                                                                                                                             MDG  M12 N  K6 IT 0000000000MDG  50GF                                 MDG  MDG           
25000002341882405057472  60013010070330  6                                                Y0MDG  MDG  M1200000000005202509011958MDG  MDG  M1200000000005202509011958                                  00000000000                                                                                                                                                                                               
01000002351882405057473  00013010070340  2TKTT    /   0101          FVVV               0011AA/WTYADZ       REN/YINGHONG MS                                  20250902A08383034                       U        CN     MDGTOCN                     00000000                                                                                               X   06    405                                            
02000002361882405057473  00013010070340  2MDG   20250901                              15090406490-                                                                    1958000001SEP                                                                                                                                                                                                                             
03000002371882405057473  00013010070340  2                                       IT         IT               321YQ       43YR      250XT           ITWA200401KH   ADT                                                                                 NON-END/REROUTE/RESTRICTION APPLY/ TICKET CJX                                                                                                             
04000002381882405057473  00013010070340  20000000101400000005500USD200000000400CNY0      0000000000000000      0000000000000000      00000000000000000000000000000000  000000000000000000000000000000000YQF     00000000321YRI     00000000043KX      00000000214L5      00000000036        00000000000        00000000000        00000000000        00000000000        00000000000                             
05000002391882405057473  00013010070340  21  PNH  CAN  K6  K6   610  610 P   03SEP03SEP03SEP2350 0400 OK1PCPOCNA                                                                                                                                                                                                                                                                                                
07000002401882405057473  00013010070340  2XX        00000001014                                                                                     00000000000CNY0            00000000000                                                                                     00000000000      XX                                                                                                              
08000002411882405057473  00013010070340  200PNH K6 CAN55.00NUC55.00END ROE1.00                                                     1                                                                                       0                                                                                       0                                                                                       0    
24000002421882405057473  00013010070340  2                                                                                                                                                                                                                                                                             MDG  M12 N  K6 IT 0000000000MDG  50GF                                 MDG  MDG           
25000002431882405057473  00013010070340  2                                                Y0MDG  MDG  M1200000000005202509011958MDG  MDG  M1200000000005202509011958                                  00000000000                                                                                                                                                                                               
01000002441882405057474  10013010070350  5TKTT    /   0101          FVVV               0011AA/WPIFXR       CHEN/WEIQI MR                                    20250902A08383034                       U        CN     MDGTOCN                     00000000                                                                                               X   06    405                                            
02000002451882405057474  10013010070350  5MDG   20250901                              15090406490-                                                                    1958000001SEP                                                                                                                                                                                                                             
03000002461882405057474  10013010070350  5                                       IT         IT               321YQ       43YR      250XT           ITWA200401KH   ADT                                                                                 NON-END/REROUTE/RESTRICTION APPLY/ TICKET CJX                                                                                                             
04000002471882405057474  10013010070350  50000000101400000005500USD200000000400CNY0      0000000000000000      0000000000000000      00000000000000000000000000000000  000000000000000000000000000000000YQF     00000000321YRI     00000000043KX      00000000214L5      00000000036        00000000000        00000000000        00000000000        00000000000        00000000000                             
05000002481882405057474  10013010070350  51  PNH  CAN  K6  K6   610  610 P   03SEP03SEP03SEP2350 0400 OK1PCPOCNA                                                                                                                                                                                                                                                                                                
