TCNXMT1W K6                  000005365090125                                                                                                                                                                                                                                                                                                                                                                    
01000000011882405057179  00010010269580  4TKTT    /   0101          FVVV               0011AA/FHSSXU       YOU/FENGCHAO MS                                  20250901A08383034                       U        CN     MDGTOCN                     00000000                                                                                               X   06    405                                            
02000000021882405057179  00010010269580  4MDG   20250831                              19836222397-                                                                    1939000031AUG                                                                                                                                                                                                                             
03000000031882405057179  00010010269580  4                                       IT                          322YQ       43YR       90CN           ITWA200401KH   ADT                                                                                 NON-END/REROUTE/RESTRICTION APPLY/ TICKET CJX                                                                                                             
04000000041882405057179  00010010269580  40000000130500000000850CNY000000000000          0000000000000000      0000000000000000      00000000000000000000000000000000  000000000000000000000000000000000YQF     00000000322YRI     00000000043CN      00000000090        00000000000        00000000000        00000000000        00000000000        00000000000        00000000000                             
05000000051882405057179  00010010269580  41  NNG  KTI  K6  K6   897  897 A   15SEP15SEP15SEP0105 0220 OK1PCAOCNA                                                                                                                                                                                                                                                                                                
07000000061882405057179  00010010269580  4XX        00000001305                                                                                     00000000000CNY0            00000000000                                                                                     00000000000      XX                                                                                                              
08000000071882405057179  00010010269580  400NNG K6 KTI118.24NUC118.24END ROE7.188637                                               1                                                                                       0                                                                                       0                                                                                       0    
24000000081882405057179  00010010269580  4                                                                                                                                                                                                                                                                             MDG  M12 N  K6 IT 0000000000MDG  50GF                                 MDG  MDG           
25000000091882405057179  00010010269580  4                                                Y0MDG  MDG  M1200000000005202508311939MDG  MDG  M1200000000005202508311939                                  00000000000                                                                                                                                                                                               
01000000101882405057180  10010010269590  0TKTT    /   0101          FVVV               0011AA/UDAOLH       XIE/JIXIAN MR                                    20250901A08383034                       U        CN     MDGTOCN                     00000000                                                                                               X   06    405                                            
02000000111882405057180  10010010269590  0MDG   20250831                              19836222397-                                                                    1943000031AUG                                                                                                                                                                                                                             
03000000121882405057180  10010010269590  0                                       IT                          322YQ       43YR       90CN           ITWA200401KH   ADT                                                                                 NON-END/REROUTE/RESTRICTION APPLY/ TICKET CJX                                                                                                             
04000000131882405057180  10010010269590  00000000095500000000500CNY000000000000          0000000000000000      0000000000000000      00000000000000000000000000000000  000000000000000000000000000000000YQF     00000000322YRI     00000000043CN      00000000090        00000000000        00000000000        00000000000        00000000000        00000000000        00000000000                             
05000000141882405057180  10010010269590  01  CAN  KTI  K6  K6   669  669 P   22SEP22SEP22SEP1345 1540 OK1PCPOCNA                                                                                                                                                                                                                                                                                                
07000000151882405057180  10010010269590  0XX        00000000955                                                                                     00000000000CNY0            00000000000                                                                                     00000000000      XX                                                                                                              
08000000161882405057180  10010010269590  000CAN K6 KTI69.55NUC69.55END ROE7.188637                                                 1                                                                                       0                                                                                       0                                                                                       0    
24000000171882405057180  10010010269590  0                                                                                                                                                                                                                                                                             MDG  M12 N  K6 IT 0000000000MDG  50GF                                 MDG  MDG           
25000000181882405057180  10010010269590  0                                                Y0MDG  MDG  M1200000000005202508311943MDG  MDG  M1200000000005202508311943                                  00000000000                                                                                                                                                                                               
01000000191882405057181  20010010269600  3TKTT    /   0101          FVVV               0011AA/DSVBPL       LI/TIESHAN MR                                    20250901A08383034                       U        CN     MDGTOCN                     00000000                                                                                               X   06    405                                            
02000000201882405057181  20010010269600  3MDG   20250831                              19836222397-                                                                    1952000031AUG                                                                                                                                                                                                                             
03000000211882405057181  20010010269600  3                                       IT         IT               322YQ       43YR      251XT           ITWA200401KH   ADT                                                                                 NON-END/REROUTE/RESTRICTION APPLY/ TICKET CJX                                                                                                             
04000000221882405057181  20010010269600  30000000101600000005500USD200000000400CNY0      0000000000000000      0000000000000000      00000000000000000000000000000000  000000000000000000000000000000000YQF     00000000322YRI     00000000043KX      00000000215L5      00000000036        00000000000        00000000000        00000000000        00000000000        00000000000                             
05000000231882405057181  20010010269600  31  PNH  CAN  K6  K6   610  610 P   01SEP01SEP01SEP2350 0400 OK1PCPOCNA                                                                                                                                                                                                                                                                                                
07000000241882405057181  20010010269600  3XX        00000001016                                                                                     00000000000CNY0            00000000000                                                                                     00000000000      XX                                                                                                              
08000000251882405057181  20010010269600  300PNH K6 CAN55.00NUC55.00END ROE1.00                                                     1                                                                                       0                                                                                       0                                                                                       0    
24000000261882405057181  20010010269600  3                                                                                                                                                                                                                                                                             MDG  M12 N  K6 IT 0000000000MDG  50GF                                 MDG  MDG           
25000000271882405057181  20010010269600  3                                                Y0MDG  MDG  M1200000000005202508311952MDG  MDG  M1200000000005202508311952                                  00000000000                                                                                                                                                                                               
01000000281882405057182  30010010269610  6TKTT    /   0101          FVVV               0011AA/DTFMPZ       FU/KUN MR                                        20250901A08383034                       U        CN     MDGTOCN                     00000000                                                                                               X   06    405                                            
02000000291882405057182  30010010269610  6MDG   20250831                              18128861151-                                                                    2016000031AUG                                                                                                                                                                                                                             
03000000301882405057182  30010010269610  6                                       IT         IT               322YQ       43YR      251XT           ITWA200401KH   ADT                                                                                 NON-END/REROUTE/RESTRICTION APPLY/ TICKET CNT                                                                                                             
04000000311882405057182  30010010269610  60000000151600000012500USD200000000900CNY0      0000000000000000      0000000000000000      00000000000000000000000000000000  000000000000000000000000000000000YQF     00000000322YRI     00000000043KX      00000000215L5      00000000036        00000000000        00000000000        00000000000        00000000000        00000000000                             
05000000321882405057182  30010010269610  61  KTI  CGO  K6  K6   894  894 P   01NOV01NOV01NOV0055 0605 OK1PCPOCNA                                                                                                                                                                                                                                                                                                
07000000331882405057182  30010010269610  6XX        00000001516                                                                                     00000000000CNY0            00000000000                                                                                     00000000000      XX                                                                                                              
08000000341882405057182  30010010269610  600KTI K6 CGO125.00NUC125.00END ROE1.00                                                   1                                                                                       0                                                                                       0                                                                                       0    
24000000351882405057182  30010010269610  6                                                                                                                                                                                                                                                                             MDG  M12 N  K6 IT 0000000000MDG  50GF                                 MDG  MDG           
25000000361882405057182  30010010269610  6                                                Y0MDG  MDG  M1200000000005202508312016MDG  MDG  M1200000000005202508312016                                  00000000000                                                                                                                                                                                               
01000000371882105057183  10010010269626  1TKTT    /   0101          FFVV               0011AA/FGKQHA       TINGSA/PRAPASSORN MS                             20250901A07100026                       U        KH     JYYSWKH                     00000000                                                                                               X   06    405                                            
02000000381882105057183  10010010269626  1JYY   20250831                              855--8879396                                                                    2044000031AUG                                   31AUG                                                                                                                                                                                     
03000000391882105057183  10010010269626  1                                       USD   45.00               56.00YQ    12.00YR    60.80XTUSD  173.80               ADTADT                                                                              NON-END/REROUTE/RESTRICTION APPLY                                                                                                                         
04000000401882105057183  10010010269626  10000001738000000004500USD200000000000          0000000000000000      0000000000000000      00000000000000000000000000000000  000000000000000000000000000000000YQF     00000005600YRI     00000001200KX      00000003000L5      00000000500TS      00000002260G8      00000000050G82     00000000050E7      00000000110E72     00000000110                             
05000000411882105057183  10010010269626  11 OKTI  BKK  K6  K6  724  724  R   14SEP14SEP14SEP1655 1815 OK1PCRR1MWB                  2  BKK  KTI  K6  K6  723  723  X   25SEP25SEP25SEP1425 1530 OK1PCXR6MWB                                                                                                                                                                                                      
07000000421882105057183  10010010269626  1CCVI      00000017380428609XXXXXX1770   0528 177447                                                       00000000000USD2            00000000000                                                                                     00000000000      VI428609XXXXXX1770 0528 177447                                                                                  
08000000431882105057183  10010010269626  100KTI K6 BKK17.50K6 KTI27.50NUC45.00END ROE1.00                                          1                                                                                       0                                                                                       0                                                                                       0    
24000000441882105057183  10010010269626  1                                                                                                                                                                                                                                                                             JYY  SS1*N  K6    0000000000KYY  502A                                 JYY  JYY           
25000000451882105057183  10010010269626  1                                                Y0JYY  KYY  SS100000000005202508312043JYY  KYY  SS100000000005202508312043                                  00000000000                                                                                                                                                                                               
01000000461882105057184  20010010269636  4TKTT    /   0101          FFVV               0011AA/FGKQHA       WADPAENLUM/WANDEE MR                             20250901A07100026                       U        KH     JYYSWKH                     00000000                                                                                               X   06    405                                            
02000000471882105057184  20010010269636  4JYY   20250831                              855--8879396                                                                    2044000031AUG                                   31AUG                                                                                                                                                                                     
03000000481882105057184  20010010269636  4                                       USD   45.00               56.00YQ    12.00YR    60.80XTUSD  173.80               ADTADT                                                                              NON-END/REROUTE/RESTRICTION APPLY                                                                                                                         
04000000491882105057184  20010010269636  40000001738000000004500USD200000000000          0000000000000000      0000000000000000      00000000000000000000000000000000  000000000000000000000000000000000YQF     00000005600YRI     00000001200KX      00000003000L5      00000000500TS      00000002260G8      00000000050G82     00000000050E7      00000000110E72     00000000110                             
05000000501882105057184  20010010269636  41 OKTI  BKK  K6  K6  724  724  R   14SEP14SEP14SEP1655 1815 OK1PCRR1MWB                  2  BKK  KTI  K6  K6  723  723  X   25SEP25SEP25SEP1425 1530 OK1PCXR6MWB                                                                                                                                                                                                      
07000000511882105057184  20010010269636  4CCVI      00000017380428609XXXXXX1770   0528 177447                                                       00000000000USD2            00000000000                                                                                     00000000000      VI428609XXXXXX1770 0528 177447                                                                                  
08000000521882105057184  20010010269636  400KTI K6 BKK17.50K6 KTI27.50NUC45.00END ROE1.00                                          1                                                                                       0                                                                                       0                                                                                       0    
24000000531882105057184  20010010269636  4                                                                                                                                                                                                                                                                             JYY  SS1*N  K6    0000000000KYY  502A                                 JYY  JYY           
25000000541882105057184  20010010269636  4                                                Y0JYY  KYY  SS100000000005202508312043JYY  KYY  SS100000000005202508312043                                  00000000000                                                                                                                                                                                               
01000000551882405057185  60010010269640  1TKTT    /   0101          FVVV               0011AA/FFYHIL       YAN/XINGCEN MS                                   20250901A08383034                       U        CN     MDGTOCN                     00000000                                                                                               X   06    405                                            
02000000561882405057185  60010010269640  1MDG   20250831                              15090406490-                                                                    2048000031AUG                                                                                                                                                                                                                             
03000000571882405057185  60010010269640  1                                       IT         IT               322YQ       43YR      251XT           ITWA200401KH   ADT                                                                                 NON-END/REROUTE/RESTRICTION APPLY/ TICKET CJX                                                                                                             
04000000581882405057185  60010010269640  10000000101600000005500USD200000000400CNY0      0000000000000000      0000000000000000      00000000000000000000000000000000  000000000000000000000000000000000YQF     00000000322YRI     00000000043KX      00000000215L5      00000000036        00000000000        00000000000        00000000000        00000000000        00000000000                             
05000000591882405057185  60010010269640  11  PNH  CAN  K6  K6   610  610 P   02SEP02SEP02SEP2350 0400 OK1PCPOCNA                                                                                                                                                                                                                                                                                                
07000000601882405057185  60010010269640  1XX        00000001016                                                                                     00000000000CNY0            00000000000                                                                                     00000000000      XX                                                                                                              
08000000611882405057185  60010010269640  100PNH K6 CAN55.00NUC55.00END ROE1.00                                                     1                                                                                       0                                                                                       0                                                                                       0    
24000000621882405057185  60010010269640  1                                                                                                                                                                                                                                                                             MDG  M12 N  K6 IT 0000000000MDG  50GF                                 MDG  MDG           
25000000631882405057185  60010010269640  1                                                Y0MDG  MDG  M1200000000005202508312048MDG  MDG  M1200000000005202508312048                                  00000000000                                                                                                                                                                                               
01000000641882405057186  00010010269650  4TKTT    /   0101          FVVV               0011AA/FFYHIL       TANG/ANDYYIFENG MS                               20250901A08383034                       U        CN     MDGTOCN                     00000000                                                                                               X   06    405                                            
02000000651882405057186  00010010269650  4MDG   20250831                              15090406490-                                                                    2048000031AUG                                                                                                                                                                                                                             
03000000661882405057186  00010010269650  4                                       IT         IT               322YQ       43YR      251XT           ITWA200401KH   ADT                                                                                 NON-END/REROUTE/RESTRICTION APPLY/ TICKET CJX                                                                                                             
04000000671882405057186  00010010269650  40000000101600000005500USD200000000400CNY0      0000000000000000      0000000000000000      00000000000000000000000000000000  000000000000000000000000000000000YQF     00000000322YRI     00000000043KX      00000000215L5      00000000036        00000000000        00000000000        00000000000        00000000000        00000000000                             
05000000681882405057186  00010010269650  41  PNH  CAN  K6  K6   610  610 P   02SEP02SEP02SEP2350 0400 OK1PCPOCNA                                                                                                                                                                                                                                                                                                
07000000691882405057186  00010010269650  4XX        00000001016                                                                                     00000000000CNY0            00000000000                                                                                     00000000000      XX                                                                                                              
08000000701882405057186  00010010269650  400PNH K6 CAN55.00NUC55.00END ROE1.00                                                     1                                                                                       0                                                                                       0                                                                                       0    
24000000711882405057186  00010010269650  4                                                                                                                                                                                                                                                                             MDG  M12 N  K6 IT 0000000000MDG  50GF                                 MDG  MDG           
25000000721882405057186  00010010269650  4                                                Y0MDG  MDG  M1200000000005202508312048MDG  MDG  M1200000000005202508312048                                  00000000000                                                                                                                                                                                               
01000000731882405057187  10010010269660  0TKTT    /   0101          FVVV               0011AA/FFYHIL       CHAI/RUIJUAN MS                                  20250901A08383034                       U        CN     MDGTOCN                     00000000                                                                                               X   06    405                                            
02000000741882405057187  10010010269660  0MDG   20250831                              15090406490-                                                                    2048000031AUG                                                                                                                                                                                                                             
03000000751882405057187  10010010269660  0                                       IT         IT               322YQ       43YR      251XT           ITWA200401KH   ADT                                                                                 NON-END/REROUTE/RESTRICTION APPLY/ TICKET CJX                                                                                                             
04000000761882405057187  10010010269660  00000000101600000005500USD200000000400CNY0      0000000000000000      0000000000000000      00000000000000000000000000000000  000000000000000000000000000000000YQF     00000000322YRI     00000000043KX      00000000215L5      00000000036        00000000000        00000000000        00000000000        00000000000        00000000000                             
05000000771882405057187  10010010269660  01  PNH  CAN  K6  K6   610  610 P   02SEP02SEP02SEP2350 0400 OK1PCPOCNA                                                                                                                                                                                                                                                                                                
07000000781882405057187  10010010269660  0XX        00000001016                                                                                     00000000000CNY0            00000000000                                                                                     00000000000      XX                                                                                                              
08000000791882405057187  10010010269660  000PNH K6 CAN55.00NUC55.00END ROE1.00                                                     1                                                                                       0                                                                                       0                                                                                       0    
24000000801882405057187  10010010269660  0                                                                                                                                                                                                                                                                             MDG  M12 N  K6 IT 0000000000MDG  50GF                                 MDG  MDG           
25000000811882405057187  10010010269660  0                                                Y0MDG  MDG  M1200000000005202508312048MDG  MDG  M1200000000005202508312048                                  00000000000                                                                                                                                                                                               
01000000821882405057188  20010010269670  3TKTT    /   0101          FVVV               0011AA/UCOIUX       ZHONG/XIAOJUN MS                                 20250901A08383034                       U        CN     MDGTOCN                     00000000                                                                                               X   06    405                                            
02000000831882405057188  20010010269670  3MDG   20250831                              18128861151-                                                                    2101000031AUG                                                                                                                                                                                                                             
03000000841882405057188  20010010269670  3                                       IT                          322YQ       43YR       90CN           ITWA200401KH   ADT                                                                                 NON-END/REROUTE/RESTRICTION APPLY/ TICKET CNT                                                                                                             
04000000851882405057188  20010010269670  30000000345500000003000CNY000000000000          0000000000000000      0000000000000000      00000000000000000000000000000000  000000000000000000000000000000000YQF     00000000322YRI     00000000043CN      00000000090        00000000000        00000000000        00000000000        00000000000        00000000000        00000000000                             
05000000861882405057188  20010010269670  31  CAN  PNH  K6  K6   669  669 J   07SEP07SEP07SEP1345 1540 OK2PCJOCNA                                                                                                                                                                                                                                                                                                
07000000871882405057188  20010010269670  3XX        00000003455                                                                                     00000000000CNY0            00000000000                                                                                     00000000000      XX                                                                                                              
08000000881882405057188  20010010269670  300CAN K6 PNH417.32NUC417.32END ROE7.188637                                               1                                                                                       0                                                                                       0                                                                                       0    
24000000891882405057188  20010010269670  3                                                                                                                                                                                                                                                                             MDG  M12 N  K6 IT 0000000000MDG  50GF                                 MDG  MDG           
25000000901882405057188  20010010269670  3                                                Y0MDG  MDG  M1200000000005202508312101MDG  MDG  M1200000000005202508312101                                  00000000000                                                                                                                                                                                               
01000000911882405057189  30010010269680  6TKTT    /   0101          FVVV               0011AA/UBEXDP       HUANG/XINGMIN MR                                 20250901A08383034                       U        CN     MDGTOCN                     00000000                                                                                               X   06    405                                            
02000000921882405057189  30010010269680  6MDG   20250831                              19836222397-                                                                    2105000031AUG                                                                                                                                                                                                                             
03000000931882405057189  30010010269680  6                                       IT                          322YQ       43YR       90CN           ITWA200401KH   ADT                                                                                 NON-END/REROUTE/RESTRICTION APPLY/ TICKET CJX                                                                                                             
04000000941882405057189  30010010269680  60000000110500000000650CNY000000000000          0000000000000000      0000000000000000      00000000000000000000000000000000  000000000000000000000000000000000YQF     00000000322YRI     00000000043CN      00000000090        00000000000        00000000000        00000000000        00000000000        00000000000        00000000000                             
05000000951882405057189  30010010269680  61  CAN  PNH  K6  K6   669  669 Q   03SEP03SEP03SEP1325 1520 OK1PCQOCNA                                                                                                                                                                                                                                                                                                
07000000961882405057189  30010010269680  6XX        00000001105                                                                                     00000000000CNY0            00000000000                                                                                     00000000000      XX                                                                                                              
08000000971882405057189  30010010269680  600CAN K6 PNH90.42NUC90.42END ROE7.188637                                                 1                                                                                       0                                                                                       0                                                                                       0    
24000000981882405057189  30010010269680  6                                                                                                                                                                                                                                                                             MDG  M12 N  K6 IT 0000000000MDG  50GF                                 MDG  MDG           
25000000991882405057189  30010010269680  6                                                Y0MDG  MDG  M1200000000005202508312105MDG  MDG  M1200000000005202508312105                                  00000000000                                                                                                                                                                                               
01000001001882405057190  40010010269690  2TKTT    /   0101          FVVV               0011AA/DTEBKO       DING/YONGQIANG MR                                20250901A08383034                       U        CN     MDGTOCN                     00000000                                                                                               X   06    405                                            
02000001011882405057190  40010010269690  2MDG   20250831                              18128861151-                                                                    2122000031AUG                                                                                                                                                                                                                             
03000001021882405057190  40010010269690  2                                       IT                          322YQ       43YR       90CN           ITWA200401KH   ADT                                                                                 NON-END/REROUTE/RESTRICTION APPLY/ TICKET CNT                                                                                                             
04000001031882405057190  40010010269690  20000000110500000000650CNY000000000000          0000000000000000      0000000000000000      00000000000000000000000000000000  000000000000000000000000000000000YQF     00000000322YRI     00000000043CN      00000000090        00000000000        00000000000        00000000000        00000000000        00000000000        00000000000                             
05000001041882405057190  40010010269690  21  CAN  PNH  K6  K6   669  669 Q   05SEP05SEP05SEP1325 1520 OK1PCQOCNA                                                                                                                                                                                                                                                                                                
07000001051882405057190  40010010269690  2XX        00000001105                                                                                     00000000000CNY0            00000000000                                                                                     00000000000      XX                                                                                                              
08000001061882405057190  40010010269690  200CAN K6 PNH90.42NUC90.42END ROE7.188637                                                 1                                                                                       0                                                                                       0                                                                                       0    
24000001071882405057190  40010010269690  2                                                                                                                                                                                                                                                                             MDG  M12 N  K6 IT 0000000000MDG  50GF                                 MDG  MDG           
25000001081882405057190  40010010269690  2                                                Y0MDG  MDG  M1200000000005202508312122MDG  MDG  M1200000000005202508312122                                  00000000000                                                                                                                                                                                               
01000001091882405057191  50010010269700  5TKTT    /   0101          FVVV               0011AA/UANKCQ       ZHANG/XIN MS                                     20250901A08383034                       U        CN     MDGTOCN                     00000000                                                                                               X   06    405                                            
02000001101882405057191  50010010269700  5MDG   20250831                              15090406490-                                                                    2127000031AUG                                                                                                                                                                                                                             
03000001111882405057191  50010010269700  5                                       IT                          322YQ       43YR       90CN           ITWA200401KH   ADT                                                                                 NON-END/REROUTE/RESTRICTION APPLY/ TICKET CJX                                                                                                             
04000001121882405057191  50010010269700  50000000125500000000800CNY000000000000          0000000000000000      0000000000000000      00000000000000000000000000000000  000000000000000000000000000000000YQF     00000000322YRI     00000000043CN      00000000090        00000000000        00000000000        00000000000        00000000000        00000000000        00000000000                             
05000001131882405057191  50010010269700  51  CAN  PNH  K6  K6   669  669 R   02SEP02SEP02SEP1515 1710 OK1PCROCNA                                                                                                                                                                                                                                                                                                
07000001141882405057191  50010010269700  5XX        00000001255                                                                                     00000000000CNY0            00000000000                                                                                     00000000000      XX                                                                                                              
08000001151882405057191  50010010269700  500CAN K6 PNH111.28NUC111.28END ROE7.188637                                               1                                                                                       0                                                                                       0                                                                                       0    
24000001161882405057191  50010010269700  5                                                                                                                                                                                                                                                                             MDG  M12 N  K6 IT 0000000000MDG  50GF                                 MDG  MDG           
25000001171882405057191  50010010269700  5                                                Y0MDG  MDG  M1200000000005202508312127MDG  MDG  M1200000000005202508312127                                  00000000000                                                                                                                                                                                               
01000001181882405057192  60010010269710  1TKTT    /   0101          FVVV               0011AA/UANKCQ       ZHENG/BOYU MR                                    20250901A08383034                       U        CN     MDGTOCN                     00000000                                                                                               X   06    405                                            
02000001191882405057192  60010010269710  1MDG   20250831                              15090406490-                                                                    2127000031AUG                                                                                                                                                                                                                             
03000001201882405057192  60010010269710  1                                       IT                          322YQ       43YR       90CN           ITWA200401KH   ADT                                                                                 NON-END/REROUTE/RESTRICTION APPLY/ TICKET CJX                                                                                                             
04000001211882405057192  60010010269710  10000000125500000000800CNY000000000000          0000000000000000      0000000000000000      00000000000000000000000000000000  000000000000000000000000000000000YQF     00000000322YRI     00000000043CN      00000000090        00000000000        00000000000        00000000000        00000000000        00000000000        00000000000                             
05000001221882405057192  60010010269710  11  CAN  PNH  K6  K6   669  669 R   02SEP02SEP02SEP1515 1710 OK1PCROCNA                                                                                                                                                                                                                                                                                                
07000001231882405057192  60010010269710  1XX        00000001255                                                                                     00000000000CNY0            00000000000                                                                                     00000000000      XX                                                                                                              
08000001241882405057192  60010010269710  100CAN K6 PNH111.28NUC111.28END ROE7.188637                                               1                                                                                       0                                                                                       0                                                                                       0    
24000001251882405057192  60010010269710  1                                                                                                                                                                                                                                                                             MDG  M12 N  K6 IT 0000000000MDG  50GF                                 MDG  MDG           
25000001261882405057192  60010010269710  1                                                Y0MDG  MDG  M1200000000005202508312127MDG  MDG  M1200000000005202508312127                                  00000000000                                                                                                                                                                                               
01000001271882405057193  00010010269720  4TKTT    /   0101          FVVV               0011AA/UANKCQ       ZHENG/GUYU MS                                    20250901A08383034                       U        CN     MDGTOCN                     00000000                                                                                               X   06    405                                            
02000001281882405057193  00010010269720  4MDG   20250831                              15090406490-                                                                    2127000031AUG                                                                                                                                                                                                                             
03000001291882405057193  00010010269720  4                                       IT                          322YQ       43YR       90CN           ITWA200401KH   ADT                                                                                 NON-END/REROUTE/RESTRICTION APPLY/ TICKET CJX                                                                                                             
04000001301882405057193  00010010269720  40000000125500000000800CNY000000000000          0000000000000000      0000000000000000      00000000000000000000000000000000  000000000000000000000000000000000YQF     00000000322YRI     00000000043CN      00000000090        00000000000        00000000000        00000000000        00000000000        00000000000        00000000000                             
05000001311882405057193  00010010269720  41  CAN  PNH  K6  K6   669  669 R   02SEP02SEP02SEP1515 1710 OK1PCROCNA                                                                                                                                                                                                                                                                                                
07000001321882405057193  00010010269720  4XX        00000001255                                                                                     00000000000CNY0            00000000000                                                                                     00000000000      XX                                                                                                              
08000001331882405057193  00010010269720  400CAN K6 PNH111.28NUC111.28END ROE7.188637                                               1                                                                                       0                                                                                       0                                                                                       0    
24000001341882405057193  00010010269720  4                                                                                                                                                                                                                                                                             MDG  M12 N  K6 IT 0000000000MDG  50GF                                 MDG  MDG           
25000001351882405057193  00010010269720  4                                                Y0MDG  MDG  M1200000000005202508312127MDG  MDG  M1200000000005202508312127                                  00000000000                                                                                                                                                                                               
01000001361882405057194  10010010269730  0TKTT    /   0101          FVVV               0011AA/UANKCQ       ZHENG/YUNLONG MR                                 20250901A08383034                       U        CN     MDGTOCN                     00000000                                                                                               X   06    405                                            
02000001371882405057194  10010010269730  0MDG   20250831                              15090406490-                                                                    2127000031AUG                                                                                                                                                                                                                             
03000001381882405057194  10010010269730  0                                       IT                          322YQ       43YR       90CN           ITWA200401KH   ADT                                                                                 NON-END/REROUTE/RESTRICTION APPLY/ TICKET CJX                                                                                                             
04000001391882405057194  10010010269730  00000000125500000000800CNY000000000000          0000000000000000      0000000000000000      00000000000000000000000000000000  000000000000000000000000000000000YQF     00000000322YRI     00000000043CN      00000000090        00000000000        00000000000        00000000000        00000000000        00000000000        00000000000                             
05000001401882405057194  10010010269730  01  CAN  PNH  K6  K6   669  669 R   02SEP02SEP02SEP1515 1710 OK1PCROCNA                                                                                                                                                                                                                                                                                                
07000001411882405057194  10010010269730  0XX        00000001255                                                                                     00000000000CNY0            00000000000                                                                                     00000000000      XX                                                                                                              
08000001421882405057194  10010010269730  000CAN K6 PNH111.28NUC111.28END ROE7.188637                                               1                                                                                       0                                                                                       0                                                                                       0    
24000001431882405057194  10010010269730  0                                                                                                                                                                                                                                                                             MDG  M12 N  K6 IT 0000000000MDG  50GF                                 MDG  MDG           
25000001441882405057194  10010010269730  0                                                Y0MDG  MDG  M1200000000005202508312127MDG  MDG  M1200000000005202508312127                                  00000000000                                                                                                                                                                                               
01000001451882405057195  20010010269740  3TKTT    /   0101          FVVV               0011AA/GJHDYW       LI/JUNXIE MR                                     20250901A08383034                       U        CN     MDGTOCN                     00000000                                                                                               X   06    405                                            
02000001461882405057195  20010010269740  3MDG   20250831                              18128861151-                                                                    2129000031AUG                                                                                                                                                                                                                             
03000001471882405057195  20010010269740  3                                       IT                          322YQ       43YR       90CN           ITWA200401KH   ADT                                                                                 NON-END/REROUTE/RESTRICTION APPLY/ TICKET CNT                                                                                                             
04000001481882405057195  20010010269740  30000000110500000000650CNY000000000000          0000000000000000      0000000000000000      00000000000000000000000000000000  000000000000000000000000000000000YQF     00000000322YRI     00000000043CN      00000000090        00000000000        00000000000        00000000000        00000000000        00000000000        00000000000                             
05000001491882405057195  20010010269740  31  CAN  PNH  K6  K6   669  669 Q   05SEP05SEP05SEP1325 1520 OK1PCQOCNA                                                                                                                                                                                                                                                                                                
07000001501882405057195  20010010269740  3XX        00000001105                                                                                     00000000000CNY0            00000000000                                                                                     00000000000      XX                                                                                                              
08000001511882405057195  20010010269740  300CAN K6 PNH90.42NUC90.42END ROE7.188637                                                 1                                                                                       0                                                                                       0                                                                                       0    
24000001521882405057195  20010010269740  3                                                                                                                                                                                                                                                                             MDG  M12 N  K6 IT 0000000000MDG  50GF                                 MDG  MDG           
25000001531882405057195  20010010269740  3                                                Y0MDG  MDG  M1200000000005202508312129MDG  MDG  M1200000000005202508312129                                  00000000000                                                                                                                                                                                               
01000001541882405057196  30010010269750  6TKTT    /   0101          FVVV               0011AA/GJHDYW       LI/XINGLI MR                                     20250901A08383034                       U        CN     MDGTOCN                     00000000                                                                                               X   06    405                                            
02000001551882405057196  30010010269750  6MDG   20250831                              18128861151-                                                                    2129000031AUG                                                                                                                                                                                                                             
03000001561882405057196  30010010269750  6                                       IT                          322YQ       43YR       90CN           ITWA200401KH   ADT                                                                                 NON-END/REROUTE/RESTRICTION APPLY/ TICKET CNT                                                                                                             
04000001571882405057196  30010010269750  60000000110500000000650CNY000000000000          0000000000000000      0000000000000000      00000000000000000000000000000000  000000000000000000000000000000000YQF     00000000322YRI     00000000043CN      00000000090        00000000000        00000000000        00000000000        00000000000        00000000000        00000000000                             
05000001581882405057196  30010010269750  61  CAN  PNH  K6  K6   669  669 Q   05SEP05SEP05SEP1325 1520 OK1PCQOCNA                                                                                                                                                                                                                                                                                                
07000001591882405057196  30010010269750  6XX        00000001105                                                                                     00000000000CNY0            00000000000                                                                                     00000000000      XX                                                                                                              
08000001601882405057196  30010010269750  600CAN K6 PNH90.42NUC90.42END ROE7.188637                                                 1                                                                                       0                                                                                       0                                                                                       0    
24000001611882405057196  30010010269750  6                                                                                                                                                                                                                                                                             MDG  M12 N  K6 IT 0000000000MDG  50GF                                 MDG  MDG           
25000001621882405057196  30010010269750  6                                                Y0MDG  MDG  M1200000000005202508312129MDG  MDG  M1200000000005202508312129                                  00000000000                                                                                                                                                                                               
01000001631882405057197  40010010269760  2TKTT    /   0101          FVVV               0011AA/GEOHSL       HUANG/JIACONG MR                                 20250901A08383034                       U        CN     MDGTOCN                     00000000                                                                                               X   06    405                                            
02000001641882405057197  40010010269760  2MDG   20250831                              15090406490-                                                                    2129000031AUG                                                                                                                                                                                                                             
03000001651882405057197  40010010269760  2                                       IT                          322YQ       43YR       90CN           ITWA200401KH   ADT                                                                                 NON-END/REROUTE/RESTRICTION APPLY/ TICKET CJX                                                                                                             
04000001661882405057197  40010010269760  20000000125500000000800CNY000000000000          0000000000000000      0000000000000000      00000000000000000000000000000000  000000000000000000000000000000000YQF     00000000322YRI     00000000043CN      00000000090        00000000000        00000000000        00000000000        00000000000        00000000000        00000000000                             
05000001671882405057197  40010010269760  21  CAN  PNH  K6  K6   669  669 R   02SEP02SEP02SEP1515 1710 OK1PCROCNA                                                                                                                                                                                                                                                                                                
07000001681882405057197  40010010269760  2XX        00000001255                                                                                     00000000000CNY0            00000000000                                                                                     00000000000      XX                                                                                                              
08000001691882405057197  40010010269760  200CAN K6 PNH111.28NUC111.28END ROE7.188637                                               1                                                                                       0                                                                                       0                                                                                       0    
24000001701882405057197  40010010269760  2                                                                                                                                                                                                                                                                             MDG  M12 N  K6 IT 0000000000MDG  50GF                                 MDG  MDG           
25000001711882405057197  40010010269760  2                                                Y0MDG  MDG  M1200000000005202508312129MDG  MDG  M1200000000005202508312129                                  00000000000                                                                                                                                                                                               
01000001721882405057198  50010010269770  5TKTT    /   0101          FVVV               0011AA/GEOHSL       CHEN/ZIYUAN MR                                   20250901A08383034                       U        CN     MDGTOCN                     00000000                                                                                               X   06    405                                            
02000001731882405057198  50010010269770  5MDG   20250831                              15090406490-                                                                    2129000031AUG                                                                                                                                                                                                                             
03000001741882405057198  50010010269770  5                                       IT                          322YQ       43YR       90CN           ITWA200401KH   ADT                                                                                 NON-END/REROUTE/RESTRICTION APPLY/ TICKET CJX                                                                                                             
04000001751882405057198  50010010269770  50000000125500000000800CNY000000000000          0000000000000000      0000000000000000      00000000000000000000000000000000  000000000000000000000000000000000YQF     00000000322YRI     00000000043CN      00000000090        00000000000        00000000000        00000000000        00000000000        00000000000        00000000000                             
05000001761882405057198  50010010269770  51  CAN  PNH  K6  K6   669  669 R   02SEP02SEP02SEP1515 1710 OK1PCROCNA                                                                                                                                                                                                                                                                                                
07000001771882405057198  50010010269770  5XX        00000001255                                                                                     00000000000CNY0            00000000000                                                                                     00000000000      XX                                                                                                              
08000001781882405057198  50010010269770  500CAN K6 PNH111.28NUC111.28END ROE7.188637                                               1                                                                                       0                                                                                       0                                                                                       0    
24000001791882405057198  50010010269770  5                                                                                                                                                                                                                                                                             MDG  M12 N  K6 IT 0000000000MDG  50GF                                 MDG  MDG           
25000001801882405057198  50010010269770  5                                                Y0MDG  MDG  M1200000000005202508312129MDG  MDG  M1200000000005202508312129                                  00000000000                                                                                                                                                                                               
01000001811882405057199  60010010269780  1TKTT    /   0101          FVVV               0011AA/GEOHSL       LI/JINXIN MR                                     20250901A08383034                       U        CN     MDGTOCN                     00000000                                                                                               X   06    405                                            
02000001821882405057199  60010010269780  1MDG   20250831                              15090406490-                                                                    2129000031AUG                                                                                                                                                                                                                             
03000001831882405057199  60010010269780  1                                       IT                          322YQ       43YR       90CN           ITWA200401KH   ADT                                                                                 NON-END/REROUTE/RESTRICTION APPLY/ TICKET CJX                                                                                                             
04000001841882405057199  60010010269780  10000000125500000000800CNY000000000000          0000000000000000      0000000000000000      00000000000000000000000000000000  000000000000000000000000000000000YQF     00000000322YRI     00000000043CN      00000000090        00000000000        00000000000        00000000000        00000000000        00000000000        00000000000                             
05000001851882405057199  60010010269780  11  CAN  PNH  K6  K6   669  669 R   02SEP02SEP02SEP1515 1710 OK1PCROCNA                                                                                                                                                                                                                                                                                                
07000001861882405057199  60010010269780  1XX        00000001255                                                                                     00000000000CNY0            00000000000                                                                                     00000000000      XX                                                                                                              
08000001871882405057199  60010010269780  100CAN K6 PNH111.28NUC111.28END ROE7.188637                                               1                                                                                       0                                                                                       0                                                                                       0    
24000001881882405057199  60010010269780  1                                                                                                                                                                                                                                                                             MDG  M12 N  K6 IT 0000000000MDG  50GF                                 MDG  MDG           
25000001891882405057199  60010010269780  1                                                Y0MDG  MDG  M1200000000005202508312129MDG  MDG  M1200000000005202508312129                                  00000000000                                                                                                                                                                                               
01000001901882405057200  00010010269790  4TKTT    /   0101          FVVV               0011AA/GEOHSL       SHEN/DANYING MS                                  20250901A08383034                       U        CN     MDGTOCN                     00000000                                                                                               X   06    405                                            
02000001911882405057200  00010010269790  4MDG   20250831                              15090406490-                                                                    2129000031AUG                                                                                                                                                                                                                             
03000001921882405057200  00010010269790  4                                       IT                          322YQ       43YR       90CN           ITWA200401KH   ADT                                                                                 NON-END/REROUTE/RESTRICTION APPLY/ TICKET CJX                                                                                                             
04000001931882405057200  00010010269790  40000000125500000000800CNY000000000000          0000000000000000      0000000000000000      00000000000000000000000000000000  000000000000000000000000000000000YQF     00000000322YRI     00000000043CN      00000000090        00000000000        00000000000        00000000000        00000000000        00000000000        00000000000                             
05000001941882405057200  00010010269790  41  CAN  PNH  K6  K6   669  669 R   02SEP02SEP02SEP1515 1710 OK1PCROCNA                                                                                                                                                                                                                                                                                                
07000001951882405057200  00010010269790  4XX        00000001255                                                                                     00000000000CNY0            00000000000                                                                                     00000000000      XX                                                                                                              
08000001961882405057200  00010010269790  400CAN K6 PNH111.28NUC111.28END ROE7.188637                                               1                                                                                       0                                                                                       0                                                                                       0    
24000001971882405057200  00010010269790  4                                                                                                                                                                                                                                                                             MDG  M12 N  K6 IT 0000000000MDG  50GF                                 MDG  MDG           
25000001981882405057200  00010010269790  4                                                Y0MDG  MDG  M1200000000005202508312129MDG  MDG  M1200000000005202508312129                                  00000000000                                                                                                                                                                                               
01000001991882405057302  40010010269800  0TKTT    /   0101          FVVV               0011AA/DTIXPG       WANG/JIAHUI MS                                   20250901A08383034                       U        CN     MDGTOCN                     00000000                                                                                               X   06    405                                            
02000002001882405057302  40010010269800  0MDG   20250831                              15090406490-                                                                    2133000031AUG                                                                                                                                                                                                                             
03000002011882405057302  40010010269800  0                                       IT                          322YQ       43YR       90CN           ITWA200401KH   ADT                                                                                 NON-END/REROUTE/RESTRICTION APPLY/ TICKET CJX                                                                                                             
04000002021882405057302  40010010269800  00000000125500000000800CNY000000000000          0000000000000000      0000000000000000      00000000000000000000000000000000  000000000000000000000000000000000YQF     00000000322YRI     00000000043CN      00000000090        00000000000        00000000000        00000000000        00000000000        00000000000        00000000000                             
05000002031882405057302  40010010269800  01  CAN  PNH  K6  K6   669  669 R   02SEP02SEP02SEP1515 1710 OK1PCROCNA                                                                                                                                                                                                                                                                                                
07000002041882405057302  40010010269800  0XX        00000001255                                                                                     00000000000CNY0            00000000000                                                                                     00000000000      XX                                                                                                              
08000002051882405057302  40010010269800  000CAN K6 PNH111.28NUC111.28END ROE7.188637                                               1                                                                                       0                                                                                       0                                                                                       0    
24000002061882405057302  40010010269800  0                                                                                                                                                                                                                                                                             MDG  M12 N  K6 IT 0000000000MDG  50GF                                 MDG  MDG           
25000002071882405057302  40010010269800  0                                                Y0MDG  MDG  M1200000000005202508312133MDG  MDG  M1200000000005202508312133                                  00000000000                                                                                                                                                                                               
01000002081882405057303  50010010269810  3TKTT    /   0101          FVVV               0011AA/DTIXPG       ZHANG/WEI MS                                     20250901A08383034                       U        CN     MDGTOCN                     00000000                                                                                               X   06    405                                            
02000002091882405057303  50010010269810  3MDG   20250831                              15090406490-                                                                    2133000031AUG                                                                                                                                                                                                                             
03000002101882405057303  50010010269810  3                                       IT                          322YQ       43YR       90CN           ITWA200401KH   ADT                                                                                 NON-END/REROUTE/RESTRICTION APPLY/ TICKET CJX                                                                                                             
04000002111882405057303  50010010269810  30000000125500000000800CNY000000000000          0000000000000000      0000000000000000      00000000000000000000000000000000  000000000000000000000000000000000YQF     00000000322YRI     00000000043CN      00000000090        00000000000        00000000000        00000000000        00000000000        00000000000        00000000000                             
05000002121882405057303  50010010269810  31  CAN  PNH  K6  K6   669  669 R   02SEP02SEP02SEP1515 1710 OK1PCROCNA                                                                                                                                                                                                                                                                                                
07000002131882405057303  50010010269810  3XX        00000001255                                                                                     00000000000CNY0            00000000000                                                                                     00000000000      XX                                                                                                              
08000002141882405057303  50010010269810  300CAN K6 PNH111.28NUC111.28END ROE7.188637                                               1                                                                                       0                                                                                       0                                                                                       0    
24000002151882405057303  50010010269810  3                                                                                                                                                                                                                                                                             MDG  M12 N  K6 IT 0000000000MDG  50GF                                 MDG  MDG           
25000002161882405057303  50010010269810  3                                                Y0MDG  MDG  M1200000000005202508312133MDG  MDG  M1200000000005202508312133                                  00000000000                                                                                                                                                                                               
01000002171882405057304  60010010269820  6TKTT    /   0101          FVVV               0011AA/DTIXPG       CHEN/HUIREN MR                                   20250901A08383034                       U        CN     MDGTOCN                     00000000                                                                                               X   06    405                                            
02000002181882405057304  60010010269820  6MDG   20250831                              15090406490-                                                                    2133000031AUG                                                                                                                                                                                                                             
03000002191882405057304  60010010269820  6                                       IT                          322YQ       43YR       90CN           ITWA200401KH   ADT                                                                                 NON-END/REROUTE/RESTRICTION APPLY/ TICKET CJX                                                                                                             
04000002201882405057304  60010010269820  60000000125500000000800CNY000000000000          0000000000000000      0000000000000000      00000000000000000000000000000000  000000000000000000000000000000000YQF     00000000322YRI     00000000043CN      00000000090        00000000000        00000000000        00000000000        00000000000        00000000000        00000000000                             
05000002211882405057304  60010010269820  61  CAN  PNH  K6  K6   669  669 R   02SEP02SEP02SEP1515 1710 OK1PCROCNA                                                                                                                                                                                                                                                                                                
07000002221882405057304  60010010269820  6XX        00000001255                                                                                     00000000000CNY0            00000000000                                                                                     00000000000      XX                                                                                                              
08000002231882405057304  60010010269820  600CAN K6 PNH111.28NUC111.28END ROE7.188637                                               1                                                                                       0                                                                                       0                                                                                       0    
24000002241882405057304  60010010269820  6                                                                                                                                                                                                                                                                             MDG  M12 N  K6 IT 0000000000MDG  50GF                                 MDG  MDG           
25000002251882405057304  60010010269820  6                                                Y0MDG  MDG  M1200000000005202508312133MDG  MDG  M1200000000005202508312133                                  00000000000                                                                                                                                                                                               
01000002261882405057305  00010010269830  2TKTT    /   0101          FVVV               0011AA/DTIXPG       CHEN/SHIQI MS                                    20250901A08383034                       U        CN     MDGTOCN                     00000000                                                                                               X   06    405                                            
02000002271882405057305  00010010269830  2MDG   20250831                              15090406490-                                                                    2133000031AUG                                                                                                                                                                                                                             
03000002281882405057305  00010010269830  2                                       IT                          322YQ       43YR       90CN           ITWA200401KH   ADT                                                                                 NON-END/REROUTE/RESTRICTION APPLY/ TICKET CJX                                                                                                             
04000002291882405057305  00010010269830  20000000125500000000800CNY000000000000          0000000000000000      0000000000000000      00000000000000000000000000000000  000000000000000000000000000000000YQF     00000000322YRI     00000000043CN      00000000090        00000000000        00000000000        00000000000        00000000000        00000000000        00000000000                             
05000002301882405057305  00010010269830  21  CAN  PNH  K6  K6   669  669 R   02SEP02SEP02SEP1515 1710 OK1PCROCNA                                                                                                                                                                                                                                                                                                
07000002311882405057305  00010010269830  2XX        00000001255                                                                                     00000000000CNY0            00000000000                                                                                     00000000000      XX                                                                                                              
08000002321882405057305  00010010269830  200CAN K6 PNH111.28NUC111.28END ROE7.188637                                               1                                                                                       0                                                                                       0                                                                                       0    
24000002331882405057305  00010010269830  2                                                                                                                                                                                                                                                                             MDG  M12 N  K6 IT 0000000000MDG  50GF                                 MDG  MDG           
25000002341882405057305  00010010269830  2                                                Y0MDG  MDG  M1200000000005202508312133MDG  MDG  M1200000000005202508312133                                  00000000000                                                                                                                                                                                               
01000002351882405057306  10010010269840  5TKTT    /   0101          FVVV               0011AA/GHEJWY       TAN/WEICAI MR                                    20250901A08383034                       U        CN     MDGTOCN                     00000000                                                                                               X   06    405                                            
02000002361882405057306  10010010269840  5MDG   20250831                              19836222397-                                                                    2137000031AUG                                                                                                                                                                                                                             
03000002371882405057306  10010010269840  5                                       IT         IT               322YQ       43YR      251XT           ITWA200401KH   ADT                                                                                 NON-END/REROUTE/RESTRICTION APPLY/ TICKET CJX                                                                                                             
04000002381882405057306  10010010269840  50000000101600000005500USD200000000400CNY0      0000000000000000      0000000000000000      00000000000000000000000000000000  000000000000000000000000000000000YQF     00000000322YRI     00000000043KX      00000000215L5      00000000036        00000000000        00000000000        00000000000        00000000000        00000000000                             
05000002391882405057306  10010010269840  51  PNH  CAN  K6  K6   610  610 P   01SEP01SEP01SEP2350 0400 OK1PCPOCNA                                                                                                                                                                                                                                                                                                
07000002401882405057306  10010010269840  5XX        00000001016                                                                                     00000000000CNY0            00000000000                                                                                     00000000000      XX                                                                                                              
08000002411882405057306  10010010269840  500PNH K6 CAN55.00NUC55.00END ROE1.00                                                     1                                                                                       0                                                                                       0                                                                                       0    
24000002421882405057306  10010010269840  5                                                                                                                                                                                                                                                                             MDG  M12 N  K6 IT 0000000000MDG  50GF                                 MDG  MDG           
25000002431882405057306  10010010269840  5                                                Y0MDG  MDG  M1200000000005202508312137MDG  MDG  M1200000000005202508312137                                  00000000000                                                                                                                                                                                               
01000002441882405057307  20010010269850  1TKTT    /   0101          FVVV               0011AA/UEERAL       HUANG/JINJIE MR                                  20250901A08383034                       U        CN     MDGTOCN                     00000000                                                                                               X   06    405                                            
02000002451882405057307  20010010269850  1MDG   20250831                              19836222397-                                                                    2149000031AUG                                                                                                                                                                                                                             
03000002461882405057307  20010010269850  1                                       IT                          322YQ       43YR       90CN           ITWA200401KH   ADT                                                                                 NON-END/REROUTE/RESTRICTION APPLY/ TICKET CJX                                                                                                             
04000002471882405057307  20010010269850  10000000110500000000650CNY000000000000          0000000000000000      0000000000000000      00000000000000000000000000000000  000000000000000000000000000000000YQF     00000000322YRI     00000000043CN      00000000090        00000000000        00000000000        00000000000        00000000000        00000000000        00000000000                             
05000002481882405057307  20010010269850  11  CAN  PNH  K6  K6   669  669 Q   04SEP04SEP04SEP1345 1540 OK1PCQOCNA                                                                                                                                                                                                                                                                                                
